{"abi":[{"type":"constructor","inputs":[],"stateMutability":"nonpayable"},{"type":"function","name":"GRID_SIZE","inputs":[],"outputs":[{"name":"","type":"uint256","internalType":"uint256"}],"stateMutability":"view"},{"type":"function","name":"MAX_SUPPLY","inputs":[],"outputs":[{"name":"","type":"uint256","internalType":"uint256"}],"stateMutability":"view"},{"type":"function","name":"PIXEL","inputs":[],"outputs":[{"name":"","type":"uint256","internalType":"uint256"}],"stateMutability":"view"},{"type":"function","name":"PREMINT_BATCH_SIZE","inputs":[],"outputs":[{"name":"","type":"uint256","internalType":"uint256"}],"stateMutability":"view"},{"type":"function","name":"approve","inputs":[{"name":"to","type":"address","internalType":"address"},{"name":"tokenId","type":"uint256","internalType":"uint256"}],"outputs":[],"stateMutability":"nonpayable"},{"type":"function","name":"balanceOf","inputs":[{"name":"owner","type":"address","internalType":"address"}],"outputs":[{"name":"","type":"uint256","internalType":"uint256"}],"stateMutability":"view"},{"type":"function","name":"getApproved","inputs":[{"name":"tokenId","type":"uint256","internalType":"uint256"}],"outputs":[{"name":"","type":"address","internalType":"address"}],"stateMutability":"view"},{"type":"function","name":"getTraits","inputs":[{"name":"tokenId","type":"uint256","internalType":"uint256"}],"outputs":[{"name":"bgIdx","type":"uint256","internalType":"uint256"},{"name":"bodyIdx","type":"uint256","internalType":"uint256"},{"name":"eyeIdx","type":"uint256","internalType":"uint256"}],"stateMutability":"pure"},{"type":"function","name":"isApprovedForAll","inputs":[{"name":"owner","type":"address","internalType":"address"},{"name":"operator","type":"address","internalType":"address"}],"outputs":[{"name":"","type":"bool","internalType":"bool"}],"stateMutability":"view"},{"type":"function","name":"name","inputs":[],"outputs":[{"name":"","type":"string","internalType":"string"}],"stateMutability":"view"},{"type":"function","name":"owner","inputs":[],"outputs":[{"name":"","type":"address","internalType":"address"}],"stateMutability":"view"},{"type":"function","name":"ownerOf","inputs":[{"name":"tokenId","type":"uint256","internalType":"uint256"}],"outputs":[{"name":"","type":"address","internalType":"address"}],"stateMutability":"view"},{"type":"function","name":"premint","inputs":[{"name":"to","type":"address","internalType":"address"},{"name":"quantity","type":"uint256","internalType":"uint256"}],"outputs":[],"stateMutability":"nonpayable"},{"type":"function","name":"premintBatch","inputs":[{"name":"to","type":"address","internalType":"address"}],"outputs":[],"stateMutability":"nonpayable"},{"type":"function","name":"renounceOwnership","inputs":[],"outputs":[],"stateMutability":"nonpayable"},{"type":"function","name":"safeTransferFrom","inputs":[{"name":"from","type":"address","internalType":"address"},{"name":"to","type":"address","internalType":"address"},{"name":"tokenId","type":"uint256","internalType":"uint256"}],"outputs":[],"stateMutability":"nonpayable"},{"type":"function","name":"safeTransferFrom","inputs":[{"name":"from","type":"address","internalType":"address"},{"name":"to","type":"address","internalType":"address"},{"name":"tokenId","type":"uint256","internalType":"uint256"},{"name":"data","type":"bytes","internalType":"bytes"}],"outputs":[],"stateMutability":"nonpayable"},{"type":"function","name":"setApprovalForAll","inputs":[{"name":"operator","type":"address","internalType":"address"},{"name":"approved","type":"bool","internalType":"bool"}],"outputs":[],"stateMutability":"nonpayable"},{"type":"function","name":"supportsInterface","inputs":[{"name":"interfaceId","type":"bytes4","internalType":"bytes4"}],"outputs":[{"name":"","type":"bool","internalType":"bool"}],"stateMutability":"view"},{"type":"function","name":"symbol","inputs":[],"outputs":[{"name":"","type":"string","internalType":"string"}],"stateMutability":"view"},{"type":"function","name":"tokenURI","inputs":[{"name":"tokenId","type":"uint256","internalType":"uint256"}],"outputs":[{"name":"","type":"string","internalType":"string"}],"stateMutability":"view"},{"type":"function","name":"transferFrom","inputs":[{"name":"from","type":"address","internalType":"address"},{"name":"to","type":"address","internalType":"address"},{"name":"tokenId","type":"uint256","internalType":"uint256"}],"outputs":[],"stateMutability":"nonpayable"},{"type":"function","name":"transferOwnership","inputs":[{"name":"newOwner","type":"address","internalType":"address"}],"outputs":[],"stateMutability":"nonpayable"},{"type":"event","name":"Approval","inputs":[{"name":"owner","type":"address","indexed":true,"internalType":"address"},{"name":"approved","type":"address","indexed":true,"internalType":"address"},{"name":"tokenId","type":"uint256","indexed":true,"internalType":"uint256"}],"anonymous":false},{"type":"event","name":"ApprovalForAll","inputs":[{"name":"owner","type":"address","indexed":true,"internalType":"address"},{"name":"operator","type":"address","indexed":true,"internalType":"address"},{"name":"approved","type":"bool","indexed":false,"internalType":"bool"}],"anonymous":false},{"type":"event","name":"OwnershipTransferred","inputs":[{"name":"previousOwner","type":"address","indexed":true,"internalType":"address"},{"name":"newOwner","type":"address","indexed":true,"internalType":"address"}],"anonymous":false},{"type":"event","name":"Transfer","inputs":[{"name":"from","type":"address","indexed":true,"internalType":"address"},{"name":"to","type":"address","indexed":true,"internalType":"address"},{"name":"tokenId","type":"uint256","indexed":true,"internalType":"uint256"}],"anonymous":false},{"type":"error","name":"ERC721IncorrectOwner","inputs":[{"name":"sender","type":"address","internalType":"address"},{"name":"tokenId","type":"uint256","internalType":"uint256"},{"name":"owner","type":"address","internalType":"address"}]},{"type":"error","name":"ERC721InsufficientApproval","inputs":[{"name":"operator","type":"address","internalType":"address"},{"name":"tokenId","type":"uint256","internalType":"uint256"}]},{"type":"error","name":"ERC721InvalidApprover","inputs":[{"name":"approver","type":"address","internalType":"address"}]},{"type":"error","name":"ERC721InvalidOperator","inputs":[{"name":"operator","type":"address","internalType":"address"}]},{"type":"error","name":"ERC721InvalidOwner","inputs":[{"name":"owner","type":"address","internalType":"address"}]},{"type":"error","name":"ERC721InvalidReceiver","inputs":[{"name":"receiver","type":"address","internalType":"address"}]},{"type":"error","name":"ERC721InvalidSender","inputs":[{"name":"sender","type":"address","internalType":"address"}]},{"type":"error","name":"ERC721NonexistentToken","inputs":[{"name":"tokenId","type":"uint256","internalType":"uint256"}]},{"type":"error","name":"OwnableInvalidOwner","inputs":[{"name":"owner","type":"address","internalType":"address"}]},{"type":"error","name":"OwnableUnauthorizedAccount","inputs":[{"name":"account","type":"address","internalType":"address"}]}],"bytecode":{"object":"0x6007610360818152660233030303030360cc1b6103805260809081526103a08281526611a3232323232360c91b6103c05260a0526103e08281526611a2199923192360c91b6104005260c052610420828152660234646364130360cc1b6104405260e052610460828152660234646443130360cc1b61048052610100526104a0828152660233941464630360cc1b6104c052610120526104e08281526608cc0c108e0e4d60ca1b6105005261014052610520828152662330423544314560c81b610540526101605261056082815266119818229aa32360c91b61058052610180526105a0828152662334324135463560c81b6105c0526101a0526105e0828152660233030333341360cc1b610600526101c0526106208281526611992298181b1b60c91b610640526101e0526106608281526608cdd0ccd0515160ca1b61068052610200526106a08281526611a32319231c9960c91b6106c052610220526106e0828152660234646384138360cc1b610700526102405261072082815266119b2218a118a160c91b6107405261026052610760828152660233541303030360cc1b61078052610280526107a0828152660234334363231360cc1b6107c0526102a0526107e0828152660233741384230360cc1b610800526102c05261082082815266119b211ba19c2360c91b610840526102e05261086082815266046646c666466760cb1b61088052610300526108a0828152662346334532423360c81b6108c052610320526109206040526108e0918252662330304646394360c81b610900526103409190915261025590600890601761034d565b50348015610261575f5ffd5b503360405180604001604052806009815260200168436c617750756e6b7360b81b81525060405180604001604052806004815260200163434c415760e01b815250815f90816102b09190610498565b5060016102bd8282610498565b5050506001600160a01b0381166102ed57604051631e4fbdf760e01b81525f600482015260240160405180910390fd5b6102f6816102fc565b50610552565b600680546001600160a01b038381166001600160a01b0319831681179093556040519116919082907f8be0079c531659141344cd1fd0a4f28419497f9722a3daafe3b4186f6b6457e0905f90a35050565b8260178101928215610386579160200282015b8281111561038657825182906103769082610498565b5091602001919060010190610360565b50610392929150610396565b5090565b80821115610392575f6103a982826103b2565b50600101610396565b5080546103be90610414565b5f825580601f106103cd575050565b601f0160209004905f5260205f20908101906103e991906103ec565b50565b5b80821115610392575f81556001016103ed565b634e487b7160e01b5f52604160045260245ffd5b600181811c9082168061042857607f821691505b60208210810361044657634e487b7160e01b5f52602260045260245ffd5b50919050565b601f82111561049357805f5260205f20601f840160051c810160208510156104715750805b601f840160051c820191505b81811015610490575f815560010161047d565b50505b505050565b81516001600160401b038111156104b1576104b1610400565b6104c5816104bf8454610414565b8461044c565b6020601f8211600181146104f7575f83156104e05750848201515b5f19600385901b1c1916600184901b178455610490565b5f84815260208120601f198516915b828110156105265787850151825560209485019460019092019101610506565b508482101561054357868401515f19600387901b60f8161c191681555b50505050600190811b01905550565b611cb68061055f5f395ff3fe608060405234801561000f575f5ffd5b5060043610610148575f3560e01c8063715018a6116100bf578063b92f61e011610079578063b92f61e01461025a578063c87b56dd146102a1578063e1dc0761146102b4578063e985e9c5146102e2578063f2fde38b146102f5578063f5763da314610308575f5ffd5b8063715018a6146102525780637fc4eda81461025a5780638da5cb5b1461026257806395d89b4114610273578063a22cb4651461027b578063b88d4fde1461028e575f5ffd5b80632b5e3e26116101105780632b5e3e26146101dc57806332cb6b0c146101ef57806342842e0e146102065780636352211e1461021957806370a082311461022c57806370bce82d1461023f575f5ffd5b806301ffc9a71461014c57806306fdde0314610174578063081812fc14610189578063095ea7b3146101b457806323b872dd146101c9575b5f5ffd5b61015f61015a36600461147a565b610311565b60405190151581526020015b60405180910390f35b61017c610362565b60405161016b91906114ca565b61019c6101973660046114dc565b6103f1565b6040516001600160a01b03909116815260200161016b565b6101c76101c236600461150e565b610418565b005b6101c76101d7366004611536565b610427565b6101c76101ea36600461150e565b6104b5565b6101f861271081565b60405190815260200161016b565b6101c7610214366004611536565b610549565b61019c6102273660046114dc565b610563565b6101f861023a366004611570565b61056d565b6101c761024d366004611570565b6105b2565b6101c761065d565b6101f8601481565b6006546001600160a01b031661019c565b61017c610670565b6101c7610289366004611589565b61067f565b6101c761029c3660046115d6565b61068a565b61017c6102af3660046114dc565b6106a2565b6102c76102c23660046114dc565b610725565b6040805193845260208401929092529082015260600161016b565b61015f6102f03660046116b3565b61073e565b6101c7610303366004611570565b61076b565b6101f86107d081565b5f6001600160e01b031982166380ac58cd60e01b148061034157506001600160e01b03198216635b5e139f60e01b145b8061035c57506301ffc9a760e01b6001600160e01b03198316145b92915050565b60605f8054610370906116e4565b80601f016020809104026020016040519081016040528092919081815260200182805461039c906116e4565b80156103e75780601f106103be576101008083540402835291602001916103e7565b820191905f5260205f20905b8154815290600101906020018083116103ca57829003601f168201915b5050505050905090565b5f6103fb826107a8565b505f828152600460205260409020546001600160a01b031661035c565b6104238282336107e0565b5050565b6001600160a01b03821661045557604051633250574960e11b81525f60048201526024015b60405180910390fd5b5f6104618383336107ed565b9050836001600160a01b0316816001600160a01b0316146104af576040516364283d7b60e01b81526001600160a01b038086166004830152602482018490528216604482015260640161044c565b50505050565b6104bd6108df565b612710816007546104ce9190611730565b11156105115760405162461bcd60e51b815260206004820152601260248201527145786365656473206d617820737570706c7960701b604482015260640161044c565b5f5b8181101561054457600780549081905f61052c83611743565b919050555061053b848261090c565b50600101610513565b505050565b61054483838360405180602001604052805f81525061068a565b5f61035c826107a8565b5f6001600160a01b038216610597576040516322718ad960e21b81525f600482015260240161044c565b506001600160a01b03165f9081526003602052604090205490565b6105ba6108df565b5f6007546127106105cb919061175b565b90505f81116106135760405162461bcd60e51b8152602060048201526014602482015273105b1c9958591e48199d5b1b1e481b5a5b9d195960621b604482015260640161044c565b5f6107d08210156106245781610628565b6107d05b90505f5b818110156104af57600780549081905f61064583611743565b9190505550610654858261090c565b5060010161062c565b6106656108df565b61066e5f610925565b565b606060018054610370906116e4565b610423338383610976565b610695848484610427565b6104af3385858585610a14565b60606106ad826107a8565b505f6106b883610b3c565b90505f6106c482610cb9565b90505f6106f96106d386610cc5565b836040516020016106e5929190611785565b604051602081830303815290604052610cb9565b90508060405160200161070c9190611849565b6040516020818303038152906040529350505050919050565b5f5f5f61073184610d55565b9250925092509193909250565b6001600160a01b039182165f90815260056020908152604080832093909416825291909152205460ff1690565b6107736108df565b6001600160a01b03811661079c57604051631e4fbdf760e01b81525f600482015260240161044c565b6107a581610925565b50565b5f818152600260205260408120546001600160a01b03168061035c57604051637e27328960e01b81526004810184905260240161044c565b6105448383836001610e26565b5f828152600260205260408120546001600160a01b039081169083161561081957610819818486610f2a565b6001600160a01b03811615610853576108345f855f5f610e26565b6001600160a01b0381165f90815260036020526040902080545f190190555b6001600160a01b03851615610881576001600160a01b0385165f908152600360205260409020805460010190555b5f8481526002602052604080822080546001600160a01b0319166001600160a01b0389811691821790925591518793918516917fddf252ad1be2c89b69c2b068fc378daa952ba7f163c4a11628f55a4df523b3ef91a4949350505050565b6006546001600160a01b0316331461066e5760405163118cdaa760e01b815233600482015260240161044c565b610423828260405180602001604052805f815250610f8e565b600680546001600160a01b038381166001600160a01b0319831681179093556040519116919082907f8be0079c531659141344cd1fd0a4f28419497f9722a3daafe3b4186f6b6457e0905f90a35050565b6001600160a01b0382166109a857604051630b61174360e31b81526001600160a01b038316600482015260240161044c565b6001600160a01b038381165f81815260056020908152604080832094871680845294825291829020805460ff191686151590811790915591519182527f17307eab39ab6107e8899845ad3d59bd9653f200f220920489ca2b5937696c31910160405180910390a3505050565b6001600160a01b0383163b15610b3557604051630a85bd0160e11b81526001600160a01b0384169063150b7a0290610a5690889088908790879060040161187a565b6020604051808303815f875af1925050508015610a90575060408051601f3d908101601f19168201909252610a8d918101906118b6565b60015b610af7573d808015610abd576040519150601f19603f3d011682016040523d82523d5f602084013e610ac2565b606091505b5080515f03610aef57604051633250574960e11b81526001600160a01b038516600482015260240161044c565b805160208201fd5b6001600160e01b03198116630a85bd0160e11b14610b3357604051633250574960e11b81526001600160a01b038516600482015260240161044c565b505b5050505050565b60605f604051806101c001604052806101908152602001611af1610190913990505f610b696014806118d1565b90505f610b776014806118d1565b905060605f5b6014811015610c65575f5b6014811015610c5c575f81610b9e6014856118d1565b610ba89190611730565b90505f6030888381518110610bbf57610bbf6118e8565b0160200151610bd1919060f81c6118fc565b90505f610bde828c610fa5565b90505f610bec6014866118d1565b90505f610bfa6014886118d1565b905087610c0683610cc5565b610c0f83610cc5565b610c196014610cc5565b610c236014610cc5565b87604051602001610c3996959493929190611915565b604051602081830303815290604052975050505050508080600101915050610b88565b50600101610b7d565b50610c6f83610cc5565b610c7883610cc5565b610c8185610cc5565b610c8a85610cc5565b84604051602001610c9f9594939291906119c9565b604051602081830303815290604052945050505050919050565b606061035c825f61114a565b60605f610cd1836112c9565b60010190505f8167ffffffffffffffff811115610cf057610cf06115c2565b6040519080825280601f01601f191660200182016040528015610d1a576020820181803683370190505b5090508181016020015b5f19016f181899199a1a9b1b9c1cb0b131b232b360811b600a86061a8153600a8504945084610d2457509392505050565b5f8080610d63601785611aca565b92505f6016610d73601787611add565b610d7d9190611aca565b90505f805b6017811015610db757858114610daf57828203610da157809450610db7565b81610dab81611743565b9250505b600101610d82565b505f6015610dc76101fa89611add565b610dd19190611aca565b5f92509050815b6017811015610e1b57868114158015610df15750858114155b15610e1357818303610e0557809450610e1b565b82610e0f81611743565b9350505b600101610dd8565b505050509193909250565b8080610e3a57506001600160a01b03821615155b15610efb575f610e49846107a8565b90506001600160a01b03831615801590610e755750826001600160a01b0316816001600160a01b031614155b8015610e885750610e86818461073e565b155b15610eb15760405163a9fbf51f60e01b81526001600160a01b038416600482015260240161044c565b8115610ef95783856001600160a01b0316826001600160a01b03167f8c5be1e5ebec7d5bd14f71427d1e84f3dd0314c0f7b2291e5b200ac8c7c3b92560405160405180910390a45b505b50505f90815260046020526040902080546001600160a01b0319166001600160a01b0392909216919091179055565b610f358383836113a0565b610544576001600160a01b038316610f6357604051637e27328960e01b81526004810182905260240161044c565b60405163177e802f60e01b81526001600160a01b03831660048201526024810182905260440161044c565b610f988383611404565b610544335f858585610a14565b60605f5f5f610fb385610d55565b9250925092508560ff165f036110685760088360178110610fd657610fd66118e8565b018054610fe2906116e4565b80601f016020809104026020016040519081016040528092919081815260200182805461100e906116e4565b80156110595780601f1061103057610100808354040283529160200191611059565b820191905f5260205f20905b81548152906001019060200180831161103c57829003601f168201915b5050505050935050505061035c565b8560ff166001036110865760088260178110610fd657610fd66118e8565b8560ff166002036110a45760088160178110610fd657610fd66118e8565b600883601781106110b7576110b76118e8565b0180546110c3906116e4565b80601f01602080910402602001604051908101604052809291908181526020018280546110ef906116e4565b801561113a5780601f106111115761010080835404028352916020019161113a565b820191905f5260205f20905b81548152906001019060200180831161111d57829003601f168201915b5050505050935050505092915050565b606082515f03611168575060408051602081019091525f815261035c565b5f826111985760038451600261117e9190611730565b6111889190611add565b6111939060046118d1565b6111bd565b6003845160046111a891906118d1565b6111b3906002611730565b6111bd9190611add565b905060405191507f4142434445464748494a4b4c4d4e4f505152535455565758595a616263646566601f5261067083027f6768696a6b6c6d6e6f707172737475767778797a303132333435363738392b2f18603f526020820181810185865187016020810180515f82525b8284101561127b576003840193508351603f8160121c16518753600187019650603f81600c1c16518753600187019650603f8160061c16518753600187019650603f811651875350600186019550611228565b9052508590506112bc5760038651066001811461129f57600281146112b2576112ba565b603d6001840353603d60028403536112ba565b603d60018403535b505b9183525060405292915050565b5f8072184f03e93ff9f4daa797ed6e38ed64bf6a1f0160401b83106113075772184f03e93ff9f4daa797ed6e38ed64bf6a1f0160401b830492506040015b6d04ee2d6d415b85acef81000000008310611333576d04ee2d6d415b85acef8100000000830492506020015b662386f26fc10000831061135157662386f26fc10000830492506010015b6305f5e1008310611369576305f5e100830492506008015b612710831061137d57612710830492506004015b6064831061138f576064830492506002015b600a831061035c5760010192915050565b5f6001600160a01b038316158015906113fc5750826001600160a01b0316846001600160a01b031614806113d957506113d9848461073e565b806113fc57505f828152600460205260409020546001600160a01b038481169116145b949350505050565b6001600160a01b03821661142d57604051633250574960e11b81525f600482015260240161044c565b5f61143983835f6107ed565b90506001600160a01b03811615610544576040516339e3563760e11b81525f600482015260240161044c565b6001600160e01b0319811681146107a5575f5ffd5b5f6020828403121561148a575f5ffd5b813561149581611465565b9392505050565b5f81518084528060208401602086015e5f602082860101526020601f19601f83011685010191505092915050565b602081525f611495602083018461149c565b5f602082840312156114ec575f5ffd5b5035919050565b80356001600160a01b0381168114611509575f5ffd5b919050565b5f5f6040838503121561151f575f5ffd5b611528836114f3565b946020939093013593505050565b5f5f5f60608486031215611548575f5ffd5b611551846114f3565b925061155f602085016114f3565b929592945050506040919091013590565b5f60208284031215611580575f5ffd5b611495826114f3565b5f5f6040838503121561159a575f5ffd5b6115a3836114f3565b9150602083013580151581146115b7575f5ffd5b809150509250929050565b634e487b7160e01b5f52604160045260245ffd5b5f5f5f5f608085870312156115e9575f5ffd5b6115f2856114f3565b9350611600602086016114f3565b925060408501359150606085013567ffffffffffffffff811115611622575f5ffd5b8501601f81018713611632575f5ffd5b803567ffffffffffffffff81111561164c5761164c6115c2565b604051601f8201601f19908116603f0116810167ffffffffffffffff8111828210171561167b5761167b6115c2565b604052818152828201602001891015611692575f5ffd5b816020840160208301375f6020838301015280935050505092959194509250565b5f5f604083850312156116c4575f5ffd5b6116cd836114f3565b91506116db602084016114f3565b90509250929050565b600181811c908216806116f857607f821691505b60208210810361171657634e487b7160e01b5f52602260045260245ffd5b50919050565b634e487b7160e01b5f52601160045260245ffd5b8082018082111561035c5761035c61171c565b5f600182016117545761175461171c565b5060010190565b8181038181111561035c5761035c61171c565b5f81518060208401855e5f93019283525090919050565b727b226e616d65223a22436c617750756e6b202360681b81525f6117ac601383018561176e565b7f222c226465736372697074696f6e223a2246756c6c79206f6e636861696e204381527f6c617750756e6b2e20323078323020706978656c206172742e2200000000000060208201527f2c22696d616765223a22646174613a696d6167652f7376672b786d6c3b626173603a82015263194d8d0b60e21b605a820152611835605e82018561176e565b61227d60f01b815260020195945050505050565b7f646174613a6170706c69636174696f6e2f6a736f6e3b6261736536342c00000081525f611495601d83018461176e565b6001600160a01b03858116825284166020820152604081018390526080606082018190525f906118ac9083018461149c565b9695505050505050565b5f602082840312156118c6575f5ffd5b815161149581611465565b808202811582820484141761035c5761035c61171c565b634e487b7160e01b5f52603260045260245ffd5b60ff828116828216039081111561035c5761035c61171c565b5f611920828961176e565b681e3932b1ba103c1e9160b91b815261193c600982018961176e565b6411103c9e9160d91b81529050611956600582018861176e565b6811103bb4b23a341e9160b91b81529050611974600982018761176e565b6911103432b4b3b43a1e9160b11b81529050611993600a82018661176e565b6711103334b6361e9160c11b815290506119b0600882018561176e565b6211179f60e91b81526003019998505050505050505050565b7f3c73766720786d6c6e733d22687474703a2f2f7777772e77332e6f72672f323081526e181817b9bb3391103bb4b23a341e9160891b60208201525f611a12602f83018861176e565b6911103432b4b3b43a1e9160b11b8152611a2f600a82018861176e565b6e011103b34b2bba137bc1e911810181608d1b81529050611a53600f82018761176e565b9050600160fd1b8152611a69600182018661176e565b90507f222073686170652d72656e646572696e673d2263726973704564676573223e008152611a9b601f82018561176e565b651e17b9bb339f60d11b815260060198975050505050505050565b634e487b7160e01b5f52601260045260245ffd5b5f82611ad857611ad8611ab6565b500690565b5f82611aeb57611aeb611ab6565b50049056fe30303030303030303030303030303030303030303030303030303030303030303030303030303030303130303030303030303030303030303030313030313130303030303031313030303030303131303031313031303030323131323030303130313130303131313130303131313131313030313131313030313131313131313131313131313131313131303030313131303131313131313131303131313030303030303030313131313131313130303030303030303030303030303131313130303030303030303030303030303030313131313030303030303030303030303030303031313131303030303030303030303030303030303131313130303030303030303030303030303030313131313030303030303030303030303030303131313131313030303030303030303030303031313131313131313030303030303030303030303031313131313130303030303030303030303030303031313131303030303030303030303030303030303031313030303030303030303030303030303030303030303030303030303030a2646970667358221220e6a85a31325d2bea4f92a591a0860ea84cedd003b9b4b4c14e526b549af99aa864736f6c634300081c0033","linkReferences":{}},"methodIdentifiers":{"GRID_SIZE()":"7fc4eda8","MAX_SUPPLY()":"32cb6b0c","PIXEL()":"b92f61e0","PREMINT_BATCH_SIZE()":"f5763da3","approve(address,uint256)":"095ea7b3","balanceOf(address)":"70a08231","getApproved(uint256)":"081812fc","getTraits(uint256)":"e1dc0761","isApprovedForAll(address,address)":"e985e9c5","name()":"06fdde03","owner()":"8da5cb5b","ownerOf(uint256)":"6352211e","premint(address,uint256)":"2b5e3e26","premintBatch(address)":"70bce82d","renounceOwnership()":"715018a6","safeTransferFrom(address,address,uint256)":"42842e0e","safeTransferFrom(address,address,uint256,bytes)":"b88d4fde","setApprovalForAll(address,bool)":"a22cb465","supportsInterface(bytes4)":"01ffc9a7","symbol()":"95d89b41","tokenURI(uint256)":"c87b56dd","transferFrom(address,address,uint256)":"23b872dd","transferOwnership(address)":"f2fde38b"},"id":36}