{"abi":[{"type":"constructor","inputs":[],"stateMutability":"nonpayable"},{"type":"function","name":"GRID_SIZE","inputs":[],"outputs":[{"name":"","type":"uint256","internalType":"uint256"}],"stateMutability":"view"},{"type":"function","name":"MAX_SUPPLY","inputs":[],"outputs":[{"name":"","type":"uint256","internalType":"uint256"}],"stateMutability":"view"},{"type":"function","name":"PIXEL","inputs":[],"outputs":[{"name":"","type":"uint256","internalType":"uint256"}],"stateMutability":"view"},{"type":"function","name":"PREMINT_BATCH_SIZE","inputs":[],"outputs":[{"name":"","type":"uint256","internalType":"uint256"}],"stateMutability":"view"},{"type":"function","name":"ROYALTY_BPS","inputs":[],"outputs":[{"name":"","type":"uint256","internalType":"uint256"}],"stateMutability":"view"},{"type":"function","name":"approve","inputs":[{"name":"to","type":"address","internalType":"address"},{"name":"tokenId","type":"uint256","internalType":"uint256"}],"outputs":[],"stateMutability":"nonpayable"},{"type":"function","name":"balanceOf","inputs":[{"name":"owner","type":"address","internalType":"address"}],"outputs":[{"name":"","type":"uint256","internalType":"uint256"}],"stateMutability":"view"},{"type":"function","name":"getApproved","inputs":[{"name":"tokenId","type":"uint256","internalType":"uint256"}],"outputs":[{"name":"","type":"address","internalType":"address"}],"stateMutability":"view"},{"type":"function","name":"getTraits","inputs":[{"name":"tokenId","type":"uint256","internalType":"uint256"}],"outputs":[{"name":"bgIdx","type":"uint256","internalType":"uint256"},{"name":"bodyIdx","type":"uint256","internalType":"uint256"},{"name":"eyeIdx","type":"uint256","internalType":"uint256"}],"stateMutability":"pure"},{"type":"function","name":"isApprovedForAll","inputs":[{"name":"owner","type":"address","internalType":"address"},{"name":"operator","type":"address","internalType":"address"}],"outputs":[{"name":"","type":"bool","internalType":"bool"}],"stateMutability":"view"},{"type":"function","name":"name","inputs":[],"outputs":[{"name":"","type":"string","internalType":"string"}],"stateMutability":"view"},{"type":"function","name":"owner","inputs":[],"outputs":[{"name":"","type":"address","internalType":"address"}],"stateMutability":"view"},{"type":"function","name":"ownerOf","inputs":[{"name":"tokenId","type":"uint256","internalType":"uint256"}],"outputs":[{"name":"","type":"address","internalType":"address"}],"stateMutability":"view"},{"type":"function","name":"premint","inputs":[{"name":"to","type":"address","internalType":"address"},{"name":"quantity","type":"uint256","internalType":"uint256"}],"outputs":[],"stateMutability":"nonpayable"},{"type":"function","name":"premintBatch","inputs":[{"name":"to","type":"address","internalType":"address"}],"outputs":[],"stateMutability":"nonpayable"},{"type":"function","name":"renounceOwnership","inputs":[],"outputs":[],"stateMutability":"nonpayable"},{"type":"function","name":"royaltyInfo","inputs":[{"name":"tokenId","type":"uint256","internalType":"uint256"},{"name":"salePrice","type":"uint256","internalType":"uint256"}],"outputs":[{"name":"receiver","type":"address","internalType":"address"},{"name":"amount","type":"uint256","internalType":"uint256"}],"stateMutability":"view"},{"type":"function","name":"safeTransferFrom","inputs":[{"name":"from","type":"address","internalType":"address"},{"name":"to","type":"address","internalType":"address"},{"name":"tokenId","type":"uint256","internalType":"uint256"}],"outputs":[],"stateMutability":"nonpayable"},{"type":"function","name":"safeTransferFrom","inputs":[{"name":"from","type":"address","internalType":"address"},{"name":"to","type":"address","internalType":"address"},{"name":"tokenId","type":"uint256","internalType":"uint256"},{"name":"data","type":"bytes","internalType":"bytes"}],"outputs":[],"stateMutability":"nonpayable"},{"type":"function","name":"setApprovalForAll","inputs":[{"name":"operator","type":"address","internalType":"address"},{"name":"approved","type":"bool","internalType":"bool"}],"outputs":[],"stateMutability":"nonpayable"},{"type":"function","name":"setRoyaltyReceiver","inputs":[{"name":"receiver","type":"address","internalType":"address"}],"outputs":[],"stateMutability":"nonpayable"},{"type":"function","name":"supportsInterface","inputs":[{"name":"interfaceId","type":"bytes4","internalType":"bytes4"}],"outputs":[{"name":"","type":"bool","internalType":"bool"}],"stateMutability":"view"},{"type":"function","name":"symbol","inputs":[],"outputs":[{"name":"","type":"string","internalType":"string"}],"stateMutability":"view"},{"type":"function","name":"tokenURI","inputs":[{"name":"tokenId","type":"uint256","internalType":"uint256"}],"outputs":[{"name":"","type":"string","internalType":"string"}],"stateMutability":"view"},{"type":"function","name":"transferFrom","inputs":[{"name":"from","type":"address","internalType":"address"},{"name":"to","type":"address","internalType":"address"},{"name":"tokenId","type":"uint256","internalType":"uint256"}],"outputs":[],"stateMutability":"nonpayable"},{"type":"function","name":"transferOwnership","inputs":[{"name":"newOwner","type":"address","internalType":"address"}],"outputs":[],"stateMutability":"nonpayable"},{"type":"event","name":"Approval","inputs":[{"name":"owner","type":"address","indexed":true,"internalType":"address"},{"name":"approved","type":"address","indexed":true,"internalType":"address"},{"name":"tokenId","type":"uint256","indexed":true,"internalType":"uint256"}],"anonymous":false},{"type":"event","name":"ApprovalForAll","inputs":[{"name":"owner","type":"address","indexed":true,"internalType":"address"},{"name":"operator","type":"address","indexed":true,"internalType":"address"},{"name":"approved","type":"bool","indexed":false,"internalType":"bool"}],"anonymous":false},{"type":"event","name":"OwnershipTransferred","inputs":[{"name":"previousOwner","type":"address","indexed":true,"internalType":"address"},{"name":"newOwner","type":"address","indexed":true,"internalType":"address"}],"anonymous":false},{"type":"event","name":"Transfer","inputs":[{"name":"from","type":"address","indexed":true,"internalType":"address"},{"name":"to","type":"address","indexed":true,"internalType":"address"},{"name":"tokenId","type":"uint256","indexed":true,"internalType":"uint256"}],"anonymous":false},{"type":"error","name":"ERC2981InvalidDefaultRoyalty","inputs":[{"name":"numerator","type":"uint256","internalType":"uint256"},{"name":"denominator","type":"uint256","internalType":"uint256"}]},{"type":"error","name":"ERC2981InvalidDefaultRoyaltyReceiver","inputs":[{"name":"receiver","type":"address","internalType":"address"}]},{"type":"error","name":"ERC2981InvalidTokenRoyalty","inputs":[{"name":"tokenId","type":"uint256","internalType":"uint256"},{"name":"numerator","type":"uint256","internalType":"uint256"},{"name":"denominator","type":"uint256","internalType":"uint256"}]},{"type":"error","name":"ERC2981InvalidTokenRoyaltyReceiver","inputs":[{"name":"tokenId","type":"uint256","internalType":"uint256"},{"name":"receiver","type":"address","internalType":"address"}]},{"type":"error","name":"ERC721IncorrectOwner","inputs":[{"name":"sender","type":"address","internalType":"address"},{"name":"tokenId","type":"uint256","internalType":"uint256"},{"name":"owner","type":"address","internalType":"address"}]},{"type":"error","name":"ERC721InsufficientApproval","inputs":[{"name":"operator","type":"address","internalType":"address"},{"name":"tokenId","type":"uint256","internalType":"uint256"}]},{"type":"error","name":"ERC721InvalidApprover","inputs":[{"name":"approver","type":"address","internalType":"address"}]},{"type":"error","name":"ERC721InvalidOperator","inputs":[{"name":"operator","type":"address","internalType":"address"}]},{"type":"error","name":"ERC721InvalidOwner","inputs":[{"name":"owner","type":"address","internalType":"address"}]},{"type":"error","name":"ERC721InvalidReceiver","inputs":[{"name":"receiver","type":"address","internalType":"address"}]},{"type":"error","name":"ERC721InvalidSender","inputs":[{"name":"sender","type":"address","internalType":"address"}]},{"type":"error","name":"ERC721NonexistentToken","inputs":[{"name":"tokenId","type":"uint256","internalType":"uint256"}]},{"type":"error","name":"OwnableInvalidOwner","inputs":[{"name":"owner","type":"address","internalType":"address"}]},{"type":"error","name":"OwnableUnauthorizedAccount","inputs":[{"name":"account","type":"address","internalType":"address"}]}],"bytecode":{"object":"0x6007610360818152660233030303030360cc1b6103805260809081526103a08281526611a3232323232360c91b6103c05260a0526103e08281526611a2199923192360c91b6104005260c052610420828152660234646364130360cc1b6104405260e052610460828152660234646443130360cc1b61048052610100526104a0828152660233941464630360cc1b6104c052610120526104e08281526608cc0c108e0e4d60ca1b6105005261014052610520828152662330423544314560c81b610540526101605261056082815266119818229aa32360c91b61058052610180526105a0828152662334324135463560c81b6105c0526101a0526105e0828152660233030333341360cc1b610600526101c0526106208281526611992298181b1b60c91b610640526101e0526106608281526608cdd0ccd0515160ca1b61068052610200526106a08281526611a32319231c9960c91b6106c052610220526106e0828152660234646384138360cc1b610700526102405261072082815266119b2218a118a160c91b6107405261026052610760828152660233541303030360cc1b61078052610280526107a0828152660234334363231360cc1b6107c0526102a0526107e0828152660233741384230360cc1b610800526102c05261082082815266119b211ba19c2360c91b610840526102e05261086082815266046646c666466760cb1b61088052610300526108a0828152662346334532423360c81b6108c052610320526109206040526108e0918252662330304646394360c81b610900526103409190915261025590600a9060176103fc565b50348015610261575f5ffd5b503360405180604001604052806009815260200168436c617750756e6b7360b81b81525060405180604001604052806004815260200163434c415760e01b81525081600290816102b19190610547565b5060036102be8282610547565b5050506001600160a01b0381166102ef57604051631e4fbdf760e01b81525f60048201526024015b60405180910390fd5b6102f88161030a565b50610305336101f461035b565b610601565b600880546001600160a01b038381166001600160a01b0319831681179093556040519116919082907f8be0079c531659141344cd1fd0a4f28419497f9722a3daafe3b4186f6b6457e0905f90a35050565b6127106001600160601b03821681101561039a57604051636f483d0960e01b81526001600160601b0383166004820152602481018290526044016102e6565b6001600160a01b0383166103c357604051635b6cc80560e11b81525f60048201526024016102e6565b50604080518082019091526001600160a01b039092168083526001600160601b039091166020909201829052600160a01b909102175f55565b8260178101928215610435579160200282015b8281111561043557825182906104259082610547565b509160200191906001019061040f565b50610441929150610445565b5090565b80821115610441575f6104588282610461565b50600101610445565b50805461046d906104c3565b5f825580601f1061047c575050565b601f0160209004905f5260205f2090810190610498919061049b565b50565b5b80821115610441575f815560010161049c565b634e487b7160e01b5f52604160045260245ffd5b600181811c908216806104d757607f821691505b6020821081036104f557634e487b7160e01b5f52602260045260245ffd5b50919050565b601f82111561054257805f5260205f20601f840160051c810160208510156105205750805b601f840160051c820191505b8181101561053f575f815560010161052c565b50505b505050565b81516001600160401b03811115610560576105606104af565b6105748161056e84546104c3565b846104fb565b6020601f8211600181146105a6575f831561058f5750848201515b5f19600385901b1c1916600184901b17845561053f565b5f84815260208120601f198516915b828110156105d557878501518255602094850194600190920191016105b5565b50848210156105f257868401515f19600387901b60f8161c191681555b50505050600190811b01905550565b611ec38061060e5f395ff3fe608060405234801561000f575f5ffd5b5060043610610187575f3560e01c8063715018a6116100d9578063b88d4fde11610093578063e1dc07611161006e578063e1dc076114610341578063e985e9c51461036f578063f2fde38b14610382578063f5763da314610395575f5ffd5b8063b88d4fde1461031b578063b92f61e0146102d4578063c87b56dd1461032e575f5ffd5b8063715018a6146102cc5780637fc4eda8146102d45780638da5cb5b146102dc5780638dc251e3146102ed57806395d89b4114610300578063a22cb46514610308575f5ffd5b80632b5e3e261161014457806349c657db1161011f57806349c657db1461028a5780636352211e1461029357806370a08231146102a657806370bce82d146102b9575f5ffd5b80632b5e3e261461024d57806332cb6b0c1461026057806342842e0e14610277575f5ffd5b806301ffc9a71461018b57806306fdde03146101b3578063081812fc146101c8578063095ea7b3146101f357806323b872dd146102085780632a55205a1461021b575b5f5ffd5b61019e61019936600461167b565b61039e565b60405190151581526020015b60405180910390f35b6101bb6103ae565b6040516101aa91906116cb565b6101db6101d63660046116dd565b61043e565b6040516001600160a01b0390911681526020016101aa565b61020661020136600461170f565b610465565b005b610206610216366004611737565b610474565b61022e610229366004611771565b610502565b604080516001600160a01b0390931683526020830191909152016101aa565b61020661025b36600461170f565b610584565b61026961271081565b6040519081526020016101aa565b610206610285366004611737565b610618565b6102696101f481565b6101db6102a13660046116dd565b610632565b6102696102b4366004611791565b61063c565b6102066102c7366004611791565b610681565b61020661072c565b610269601481565b6008546001600160a01b03166101db565b6102066102fb366004611791565b61073f565b6101bb610756565b6102066103163660046117aa565b610765565b6102066103293660046117f7565b610770565b6101bb61033c3660046116dd565b610788565b61035461034f3660046116dd565b61080b565b604080519384526020840192909252908201526060016101aa565b61019e61037d3660046118d4565b610824565b610206610390366004611791565b610851565b6102696107d081565b5f6103a88261088b565b92915050565b6060600280546103bd90611905565b80601f01602080910402602001604051908101604052809291908181526020018280546103e990611905565b80156104345780601f1061040b57610100808354040283529160200191610434565b820191905f5260205f20905b81548152906001019060200180831161041757829003601f168201915b5050505050905090565b5f61044882610895565b505f828152600660205260409020546001600160a01b03166103a8565b6104708282336108cd565b5050565b6001600160a01b0382166104a257604051633250574960e11b81525f60048201526024015b60405180910390fd5b5f6104ae8383336108da565b9050836001600160a01b0316816001600160a01b0316146104fc576040516364283d7b60e01b81526001600160a01b0380861660048301526024820184905282166044820152606401610499565b50505050565b5f82815260016020526040812080548291906001600160a01b03811690600160a01b90046001600160601b0316816105545750505f546001600160a01b03811690600160a01b90046001600160601b03165b5f61271061056b6001600160601b03841689611951565b610575919061197c565b92989297509195505050505050565b61058c6109cc565b6127108160095461059d919061198f565b11156105e05760405162461bcd60e51b815260206004820152601260248201527145786365656473206d617820737570706c7960701b6044820152606401610499565b5f5b8181101561061357600980549081905f6105fb836119a2565b919050555061060a84826109f9565b506001016105e2565b505050565b61061383838360405180602001604052805f815250610770565b5f6103a882610895565b5f6001600160a01b038216610666576040516322718ad960e21b81525f6004820152602401610499565b506001600160a01b03165f9081526005602052604090205490565b6106896109cc565b5f60095461271061069a91906119ba565b90505f81116106e25760405162461bcd60e51b8152602060048201526014602482015273105b1c9958591e48199d5b1b1e481b5a5b9d195960621b6044820152606401610499565b5f6107d08210156106f357816106f7565b6107d05b90505f5b818110156104fc57600980549081905f610714836119a2565b919050555061072385826109f9565b506001016106fb565b6107346109cc565b61073d5f610a12565b565b6107476109cc565b610753816101f4610a63565b50565b6060600380546103bd90611905565b610470338383610b04565b61077b848484610474565b6104fc3385858585610ba2565b606061079382610895565b505f61079e83610cca565b90505f6107aa82610e47565b90505f6107df6107b986610e53565b836040516020016107cb9291906119e4565b604051602081830303815290604052610e47565b9050806040516020016107f29190611a94565b6040516020818303038152906040529350505050919050565b5f5f5f61081784610ee3565b9250925092509193909250565b6001600160a01b039182165f90815260076020908152604080832093909416825291909152205460ff1690565b6108596109cc565b6001600160a01b03811661088257604051631e4fbdf760e01b81525f6004820152602401610499565b61075381610a12565b5f6103a882610fb4565b5f818152600460205260408120546001600160a01b0316806103a857604051637e27328960e01b815260048101849052602401610499565b6106138383836001610ff3565b5f828152600460205260408120546001600160a01b0390811690831615610906576109068184866110f7565b6001600160a01b03811615610940576109215f855f5f610ff3565b6001600160a01b0381165f90815260056020526040902080545f190190555b6001600160a01b0385161561096e576001600160a01b0385165f908152600560205260409020805460010190555b5f8481526004602052604080822080546001600160a01b0319166001600160a01b0389811691821790925591518793918516917fddf252ad1be2c89b69c2b068fc378daa952ba7f163c4a11628f55a4df523b3ef91a4949350505050565b6008546001600160a01b0316331461073d5760405163118cdaa760e01b8152336004820152602401610499565b610470828260405180602001604052805f81525061115b565b600880546001600160a01b038381166001600160a01b0319831681179093556040519116919082907f8be0079c531659141344cd1fd0a4f28419497f9722a3daafe3b4186f6b6457e0905f90a35050565b6127106001600160601b038216811015610aa257604051636f483d0960e01b81526001600160601b038316600482015260248101829052604401610499565b6001600160a01b038316610acb57604051635b6cc80560e11b81525f6004820152602401610499565b50604080518082019091526001600160a01b039092168083526001600160601b039091166020909201829052600160a01b909102175f55565b6001600160a01b038216610b3657604051630b61174360e31b81526001600160a01b0383166004820152602401610499565b6001600160a01b038381165f81815260076020908152604080832094871680845294825291829020805460ff191686151590811790915591519182527f17307eab39ab6107e8899845ad3d59bd9653f200f220920489ca2b5937696c31910160405180910390a3505050565b6001600160a01b0383163b15610cc357604051630a85bd0160e11b81526001600160a01b0384169063150b7a0290610be4908890889087908790600401611ac5565b6020604051808303815f875af1925050508015610c1e575060408051601f3d908101601f19168201909252610c1b91810190611b01565b60015b610c85573d808015610c4b576040519150601f19603f3d011682016040523d82523d5f602084013e610c50565b606091505b5080515f03610c7d57604051633250574960e11b81526001600160a01b0385166004820152602401610499565b805160208201fd5b6001600160e01b03198116630a85bd0160e11b14610cc157604051633250574960e11b81526001600160a01b0385166004820152602401610499565b505b5050505050565b60605f604051806101c001604052806101908152602001611cfe610190913990505f610cf7601480611951565b90505f610d05601480611951565b905060605f5b6014811015610df3575f5b6014811015610dea575f81610d2c601485611951565b610d36919061198f565b90505f6030888381518110610d4d57610d4d611b1c565b0160200151610d5f919060f81c611b30565b90505f610d6c828c611172565b90505f610d7a601486611951565b90505f610d88601488611951565b905087610d9483610e53565b610d9d83610e53565b610da76014610e53565b610db16014610e53565b87604051602001610dc796959493929190611b49565b604051602081830303815290604052975050505050508080600101915050610d16565b50600101610d0b565b50610dfd83610e53565b610e0683610e53565b610e0f85610e53565b610e1885610e53565b84604051602001610e2d959493929190611bfd565b604051602081830303815290604052945050505050919050565b60606103a8825f611317565b60605f610e5f83611496565b60010190505f8167ffffffffffffffff811115610e7e57610e7e6117e3565b6040519080825280601f01601f191660200182016040528015610ea8576020820181803683370190505b5090508181016020015b5f19016f181899199a1a9b1b9c1cb0b131b232b360811b600a86061a8153600a8504945084610eb257509392505050565b5f8080610ef1601785611cea565b92505f6016610f0160178761197c565b610f0b9190611cea565b90505f805b6017811015610f4557858114610f3d57828203610f2f57809450610f45565b81610f39816119a2565b9250505b600101610f10565b505f6015610f556101fa8961197c565b610f5f9190611cea565b5f92509050815b6017811015610fa957868114158015610f7f5750858114155b15610fa157818303610f9357809450610fa9565b82610f9d816119a2565b9350505b600101610f66565b505050509193909250565b5f6001600160e01b031982166380ac58cd60e01b1480610fe457506001600160e01b03198216635b5e139f60e01b145b806103a857506103a88261156d565b808061100757506001600160a01b03821615155b156110c8575f61101684610895565b90506001600160a01b038316158015906110425750826001600160a01b0316816001600160a01b031614155b801561105557506110538184610824565b155b1561107e5760405163a9fbf51f60e01b81526001600160a01b0384166004820152602401610499565b81156110c65783856001600160a01b0316826001600160a01b03167f8c5be1e5ebec7d5bd14f71427d1e84f3dd0314c0f7b2291e5b200ac8c7c3b92560405160405180910390a45b505b50505f90815260066020526040902080546001600160a01b0319166001600160a01b0392909216919091179055565b6111028383836115a1565b610613576001600160a01b03831661113057604051637e27328960e01b815260048101829052602401610499565b60405163177e802f60e01b81526001600160a01b038316600482015260248101829052604401610499565b6111658383611605565b610613335f858585610ba2565b60605f5f5f61118085610ee3565b9250925092508560ff165f0361123557600a83601781106111a3576111a3611b1c565b0180546111af90611905565b80601f01602080910402602001604051908101604052809291908181526020018280546111db90611905565b80156112265780601f106111fd57610100808354040283529160200191611226565b820191905f5260205f20905b81548152906001019060200180831161120957829003601f168201915b505050505093505050506103a8565b8560ff1660010361125357600a82601781106111a3576111a3611b1c565b8560ff1660020361127157600a81601781106111a3576111a3611b1c565b600a836017811061128457611284611b1c565b01805461129090611905565b80601f01602080910402602001604051908101604052809291908181526020018280546112bc90611905565b80156113075780601f106112de57610100808354040283529160200191611307565b820191905f5260205f20905b8154815290600101906020018083116112ea57829003601f168201915b5050505050935050505092915050565b606082515f03611335575060408051602081019091525f81526103a8565b5f826113655760038451600261134b919061198f565b611355919061197c565b611360906004611951565b61138a565b6003845160046113759190611951565b61138090600261198f565b61138a919061197c565b905060405191507f4142434445464748494a4b4c4d4e4f505152535455565758595a616263646566601f5261067083027f6768696a6b6c6d6e6f707172737475767778797a303132333435363738392b2f18603f526020820181810185865187016020810180515f82525b82841015611448576003840193508351603f8160121c16518753600187019650603f81600c1c16518753600187019650603f8160061c16518753600187019650603f8116518753506001860195506113f5565b9052508590506114895760038651066001811461146c576002811461147f57611487565b603d6001840353603d6002840353611487565b603d60018403535b505b9183525060405292915050565b5f8072184f03e93ff9f4daa797ed6e38ed64bf6a1f0160401b83106114d45772184f03e93ff9f4daa797ed6e38ed64bf6a1f0160401b830492506040015b6d04ee2d6d415b85acef81000000008310611500576d04ee2d6d415b85acef8100000000830492506020015b662386f26fc10000831061151e57662386f26fc10000830492506010015b6305f5e1008310611536576305f5e100830492506008015b612710831061154a57612710830492506004015b6064831061155c576064830492506002015b600a83106103a85760010192915050565b5f6001600160e01b0319821663152a902d60e11b14806103a857506301ffc9a760e01b6001600160e01b03198316146103a8565b5f6001600160a01b038316158015906115fd5750826001600160a01b0316846001600160a01b031614806115da57506115da8484610824565b806115fd57505f828152600660205260409020546001600160a01b038481169116145b949350505050565b6001600160a01b03821661162e57604051633250574960e11b81525f6004820152602401610499565b5f61163a83835f6108da565b90506001600160a01b03811615610613576040516339e3563760e11b81525f6004820152602401610499565b6001600160e01b031981168114610753575f5ffd5b5f6020828403121561168b575f5ffd5b813561169681611666565b9392505050565b5f81518084528060208401602086015e5f602082860101526020601f19601f83011685010191505092915050565b602081525f611696602083018461169d565b5f602082840312156116ed575f5ffd5b5035919050565b80356001600160a01b038116811461170a575f5ffd5b919050565b5f5f60408385031215611720575f5ffd5b611729836116f4565b946020939093013593505050565b5f5f5f60608486031215611749575f5ffd5b611752846116f4565b9250611760602085016116f4565b929592945050506040919091013590565b5f5f60408385031215611782575f5ffd5b50508035926020909101359150565b5f602082840312156117a1575f5ffd5b611696826116f4565b5f5f604083850312156117bb575f5ffd5b6117c4836116f4565b9150602083013580151581146117d8575f5ffd5b809150509250929050565b634e487b7160e01b5f52604160045260245ffd5b5f5f5f5f6080858703121561180a575f5ffd5b611813856116f4565b9350611821602086016116f4565b925060408501359150606085013567ffffffffffffffff811115611843575f5ffd5b8501601f81018713611853575f5ffd5b803567ffffffffffffffff81111561186d5761186d6117e3565b604051601f8201601f19908116603f0116810167ffffffffffffffff8111828210171561189c5761189c6117e3565b6040528181528282016020018910156118b3575f5ffd5b816020840160208301375f6020838301015280935050505092959194509250565b5f5f604083850312156118e5575f5ffd5b6118ee836116f4565b91506118fc602084016116f4565b90509250929050565b600181811c9082168061191957607f821691505b60208210810361193757634e487b7160e01b5f52602260045260245ffd5b50919050565b634e487b7160e01b5f52601160045260245ffd5b80820281158282048414176103a8576103a861193d565b634e487b7160e01b5f52601260045260245ffd5b5f8261198a5761198a611968565b500490565b808201808211156103a8576103a861193d565b5f600182016119b3576119b361193d565b5060010190565b818103818111156103a8576103a861193d565b5f81518060208401855e5f93019283525090919050565b727b226e616d65223a22436c617750756e6b202360681b81525f611a0b60138301856119cd565b7f222c226465736372697074696f6e223a2246756c6c79204f6e636861696e20438152683630bba83ab735971160b91b60208201527f2c22696d616765223a22646174613a696d6167652f7376672b786d6c3b626173602982015263194d8d0b60e21b6049820152611a80604d8201856119cd565b61227d60f01b815260020195945050505050565b7f646174613a6170706c69636174696f6e2f6a736f6e3b6261736536342c00000081525f611696601d8301846119cd565b6001600160a01b03858116825284166020820152604081018390526080606082018190525f90611af79083018461169d565b9695505050505050565b5f60208284031215611b11575f5ffd5b815161169681611666565b634e487b7160e01b5f52603260045260245ffd5b60ff82811682821603908111156103a8576103a861193d565b5f611b5482896119cd565b681e3932b1ba103c1e9160b91b8152611b7060098201896119cd565b6411103c9e9160d91b81529050611b8a60058201886119cd565b6811103bb4b23a341e9160b91b81529050611ba860098201876119cd565b6911103432b4b3b43a1e9160b11b81529050611bc7600a8201866119cd565b6711103334b6361e9160c11b81529050611be460088201856119cd565b6211179f60e91b81526003019998505050505050505050565b7f3c73766720786d6c6e733d22687474703a2f2f7777772e77332e6f72672f323081526e181817b9bb3391103bb4b23a341e9160891b60208201525f611c46602f8301886119cd565b6911103432b4b3b43a1e9160b11b8152611c63600a8201886119cd565b6e011103b34b2bba137bc1e911810181608d1b81529050611c87600f8201876119cd565b9050600160fd1b8152611c9d60018201866119cd565b90507f222073686170652d72656e646572696e673d2263726973704564676573223e008152611ccf601f8201856119cd565b651e17b9bb339f60d11b815260060198975050505050505050565b5f82611cf857611cf8611968565b50069056fe30303030303030303030303030303030303030303030303030303030303030303030303030303030303130303030303030303030303030303030313030313130303030303031313030303030303131303031313031303030323131323030303130313130303131313130303131313131313030313131313030313131313131313131313131313131313131303030313131303131313131313131303131313030303030303030313131313131313130303030303030303030303030303131313130303030303030303030303030303030313131313030303030303030303030303030303031313131303030303030303030303030303030303131313130303030303030303030303030303030313131313030303030303030303030303030303131313131313030303030303030303030303031313131313131313030303030303030303030303031313131313130303030303030303030303030303031313131303030303030303030303030303030303031313030303030303030303030303030303030303030303030303030303030a26469706673582212200facba4970c9992fcaa6392089392f0913295a4af244b97625c5eaf50ef3817d64736f6c634300081c0033","linkReferences":{}},"methodIdentifiers":{"GRID_SIZE()":"7fc4eda8","MAX_SUPPLY()":"32cb6b0c","PIXEL()":"b92f61e0","PREMINT_BATCH_SIZE()":"f5763da3","ROYALTY_BPS()":"49c657db","approve(address,uint256)":"095ea7b3","balanceOf(address)":"70a08231","getApproved(uint256)":"081812fc","getTraits(uint256)":"e1dc0761","isApprovedForAll(address,address)":"e985e9c5","name()":"06fdde03","owner()":"8da5cb5b","ownerOf(uint256)":"6352211e","premint(address,uint256)":"2b5e3e26","premintBatch(address)":"70bce82d","renounceOwnership()":"715018a6","royaltyInfo(uint256,uint256)":"2a55205a","safeTransferFrom(address,address,uint256)":"42842e0e","safeTransferFrom(address,address,uint256,bytes)":"b88d4fde","setApprovalForAll(address,bool)":"a22cb465","setRoyaltyReceiver(address)":"8dc251e3","supportsInterface(bytes4)":"01ffc9a7","symbol()":"95d89b41","tokenURI(uint256)":"c87b56dd","transferFrom(address,address,uint256)":"23b872dd","transferOwnership(address)":"f2fde38b"},"id":39}