{"abi":[{"type":"constructor","inputs":[],"stateMutability":"nonpayable"},{"type":"function","name":"GRID_SIZE","inputs":[],"outputs":[{"name":"","type":"uint256","internalType":"uint256"}],"stateMutability":"view"},{"type":"function","name":"MAX_SUPPLY","inputs":[],"outputs":[{"name":"","type":"uint256","internalType":"uint256"}],"stateMutability":"view"},{"type":"function","name":"PIXEL","inputs":[],"outputs":[{"name":"","type":"uint256","internalType":"uint256"}],"stateMutability":"view"},{"type":"function","name":"PREMINT_BATCH_SIZE","inputs":[],"outputs":[{"name":"","type":"uint256","internalType":"uint256"}],"stateMutability":"view"},{"type":"function","name":"approve","inputs":[{"name":"to","type":"address","internalType":"address"},{"name":"tokenId","type":"uint256","internalType":"uint256"}],"outputs":[],"stateMutability":"nonpayable"},{"type":"function","name":"balanceOf","inputs":[{"name":"owner","type":"address","internalType":"address"}],"outputs":[{"name":"","type":"uint256","internalType":"uint256"}],"stateMutability":"view"},{"type":"function","name":"getApproved","inputs":[{"name":"tokenId","type":"uint256","internalType":"uint256"}],"outputs":[{"name":"","type":"address","internalType":"address"}],"stateMutability":"view"},{"type":"function","name":"getTraits","inputs":[{"name":"tokenId","type":"uint256","internalType":"uint256"}],"outputs":[{"name":"bgIdx","type":"uint256","internalType":"uint256"},{"name":"bodyIdx","type":"uint256","internalType":"uint256"},{"name":"torsoIdx","type":"uint256","internalType":"uint256"},{"name":"clawIdx","type":"uint256","internalType":"uint256"},{"name":"eyeIdx","type":"uint256","internalType":"uint256"}],"stateMutability":"pure"},{"type":"function","name":"isApprovedForAll","inputs":[{"name":"owner","type":"address","internalType":"address"},{"name":"operator","type":"address","internalType":"address"}],"outputs":[{"name":"","type":"bool","internalType":"bool"}],"stateMutability":"view"},{"type":"function","name":"name","inputs":[],"outputs":[{"name":"","type":"string","internalType":"string"}],"stateMutability":"view"},{"type":"function","name":"owner","inputs":[],"outputs":[{"name":"","type":"address","internalType":"address"}],"stateMutability":"view"},{"type":"function","name":"ownerOf","inputs":[{"name":"tokenId","type":"uint256","internalType":"uint256"}],"outputs":[{"name":"","type":"address","internalType":"address"}],"stateMutability":"view"},{"type":"function","name":"premint","inputs":[{"name":"to","type":"address","internalType":"address"},{"name":"quantity","type":"uint256","internalType":"uint256"}],"outputs":[],"stateMutability":"nonpayable"},{"type":"function","name":"premintAll","inputs":[{"name":"to","type":"address","internalType":"address"}],"outputs":[],"stateMutability":"nonpayable"},{"type":"function","name":"renounceOwnership","inputs":[],"outputs":[],"stateMutability":"nonpayable"},{"type":"function","name":"safeTransferFrom","inputs":[{"name":"from","type":"address","internalType":"address"},{"name":"to","type":"address","internalType":"address"},{"name":"tokenId","type":"uint256","internalType":"uint256"}],"outputs":[],"stateMutability":"nonpayable"},{"type":"function","name":"safeTransferFrom","inputs":[{"name":"from","type":"address","internalType":"address"},{"name":"to","type":"address","internalType":"address"},{"name":"tokenId","type":"uint256","internalType":"uint256"},{"name":"data","type":"bytes","internalType":"bytes"}],"outputs":[],"stateMutability":"nonpayable"},{"type":"function","name":"setApprovalForAll","inputs":[{"name":"operator","type":"address","internalType":"address"},{"name":"approved","type":"bool","internalType":"bool"}],"outputs":[],"stateMutability":"nonpayable"},{"type":"function","name":"supportsInterface","inputs":[{"name":"interfaceId","type":"bytes4","internalType":"bytes4"}],"outputs":[{"name":"","type":"bool","internalType":"bool"}],"stateMutability":"view"},{"type":"function","name":"symbol","inputs":[],"outputs":[{"name":"","type":"string","internalType":"string"}],"stateMutability":"view"},{"type":"function","name":"tokenURI","inputs":[{"name":"tokenId","type":"uint256","internalType":"uint256"}],"outputs":[{"name":"","type":"string","internalType":"string"}],"stateMutability":"view"},{"type":"function","name":"transferFrom","inputs":[{"name":"from","type":"address","internalType":"address"},{"name":"to","type":"address","internalType":"address"},{"name":"tokenId","type":"uint256","internalType":"uint256"}],"outputs":[],"stateMutability":"nonpayable"},{"type":"function","name":"transferOwnership","inputs":[{"name":"newOwner","type":"address","internalType":"address"}],"outputs":[],"stateMutability":"nonpayable"},{"type":"event","name":"Approval","inputs":[{"name":"owner","type":"address","indexed":true,"internalType":"address"},{"name":"approved","type":"address","indexed":true,"internalType":"address"},{"name":"tokenId","type":"uint256","indexed":true,"internalType":"uint256"}],"anonymous":false},{"type":"event","name":"ApprovalForAll","inputs":[{"name":"owner","type":"address","indexed":true,"internalType":"address"},{"name":"operator","type":"address","indexed":true,"internalType":"address"},{"name":"approved","type":"bool","indexed":false,"internalType":"bool"}],"anonymous":false},{"type":"event","name":"OwnershipTransferred","inputs":[{"name":"previousOwner","type":"address","indexed":true,"internalType":"address"},{"name":"newOwner","type":"address","indexed":true,"internalType":"address"}],"anonymous":false},{"type":"event","name":"Transfer","inputs":[{"name":"from","type":"address","indexed":true,"internalType":"address"},{"name":"to","type":"address","indexed":true,"internalType":"address"},{"name":"tokenId","type":"uint256","indexed":true,"internalType":"uint256"}],"anonymous":false},{"type":"error","name":"ERC721IncorrectOwner","inputs":[{"name":"sender","type":"address","internalType":"address"},{"name":"tokenId","type":"uint256","internalType":"uint256"},{"name":"owner","type":"address","internalType":"address"}]},{"type":"error","name":"ERC721InsufficientApproval","inputs":[{"name":"operator","type":"address","internalType":"address"},{"name":"tokenId","type":"uint256","internalType":"uint256"}]},{"type":"error","name":"ERC721InvalidApprover","inputs":[{"name":"approver","type":"address","internalType":"address"}]},{"type":"error","name":"ERC721InvalidOperator","inputs":[{"name":"operator","type":"address","internalType":"address"}]},{"type":"error","name":"ERC721InvalidOwner","inputs":[{"name":"owner","type":"address","internalType":"address"}]},{"type":"error","name":"ERC721InvalidReceiver","inputs":[{"name":"receiver","type":"address","internalType":"address"}]},{"type":"error","name":"ERC721InvalidSender","inputs":[{"name":"sender","type":"address","internalType":"address"}]},{"type":"error","name":"ERC721NonexistentToken","inputs":[{"name":"tokenId","type":"uint256","internalType":"uint256"}]},{"type":"error","name":"OwnableInvalidOwner","inputs":[{"name":"owner","type":"address","internalType":"address"}]},{"type":"error","name":"OwnableUnauthorizedAccount","inputs":[{"name":"account","type":"address","internalType":"address"}]}],"bytecode":{"object":"0x608060405234610500576100136040610504565b6009815268436c617750756e6b7360b81b60208201526100336040610504565b6004815263434c415760e01b602082015281516001600160401b03811161037f5761005e5f54610529565b601f81116104b3575b50602092601f821160011461045457610098929382915f926102d0575b50508160011b915f199060031b1c19161790565b5f555b80516001600160401b03811161037f576100b6600154610529565b601f8111610406575b50602091601f82116001146103a6576100ed925f91836102d05750508160011b915f199060031b1c19161790565b6001555b33156103935760068054336001600160a01b0319821681179092556001600160a01b03167f8be0079c531659141344cd1fd0a4f28419497f9722a3daafe3b4186f6b6457e05f80a360405160e081016001600160401b0381118282101761037f5760405261015f6040610504565b60078152660233030303030360cc1b6020820152815261017f6040610504565b600781526611b3333333333360c91b602082015260208201526101a26040610504565b60078152662365353339333560c81b602082015260408201526101c56040610504565b600781526611b33332b119b160c91b602082015260608201526101e86040610504565b60078152661198181c1c9bb160c91b6020820152608082015261020b6040610504565b60078152662332313936663360c81b602082015260a082015261022e6040610504565b60078152662338653234616160c81b602082015260c08201526008905f905b6007821061026457604051611bc890816105788239f35b80518051906001600160401b03821161037f576102818554610529565b601f8111610344575b50602090601f83116001146102db57926102c1836001959460209487965f926102d05750508160011b915f199060031b1c19161790565b86555b0193019101909161024d565b015190505f80610084565b90601f19831691865f52815f20925f5b81811061032c5750936020936001969387969383889510610314575b505050811b0186556102c4565b01515f1960f88460031b161c191690555f8080610307565b828401518555600190940193602093840193016102eb565b61036f90865f5260205f20601f850160051c81019160208610610375575b601f0160051c0190610561565b5f61028a565b9091508190610362565b634e487b7160e01b5f52604160045260245ffd5b631e4fbdf760e01b5f525f60045260245ffd5b601f1982169260015f52805f20915f5b8581106103ee575083600195106103d6575b505050811b016001556100f1565b01515f1960f88460031b161c191690555f80806103c8565b919260206001819286850151815501940192016103b6565b60015f5261044e907fb10e2d527612073b26eecdfd717e6a320cf44b4afac2b0732d9fcbe2b7fa0cf6601f840160051c8101916020851061037557601f0160051c0190610561565b5f6100bf565b601f198216935f8052805f20915f5b86811061049b5750836001959610610483575b505050811b015f5561009b565b01515f1960f88460031b161c191690555f8080610476565b91926020600181928685015181550194019201610463565b5f80526104fa907f290decd9548b62a8d60345a988386fc84ba6bc95484008f6362f93160ef3e563601f840160051c8101916020851061037557601f0160051c0190610561565b5f610067565b5f80fd5b6040519190601f01601f191682016001600160401b0381118382101761037f57604052565b90600182811c92168015610557575b602083101461054357565b634e487b7160e01b5f52602260045260245ffd5b91607f1691610538565b81811061056c575050565b5f815560010161056156fe6080806040526004361015610012575f80fd5b5f3560e01c90816301ffc9a714610fb85750806306fdde0314610f00578063081812fc14610ec4578063095ea7b314610dda57806323b872dd14610dc35780632b5e3e2614610d2e57806332cb6b0c14610d125780633dc313f614610c5e57806342842e0e14610c2f5780636352211e14610bff57806370a0823114610bae578063715018a614610b535780637fc4eda8146108ed5780638da5cb5b14610b2b57806395d89b4114610a23578063a22cb46514610988578063b88d4fde146108f2578063b92f61e0146108ed578063c87b56dd14610274578063e1dc076114610215578063e985e9c5146101be578063f2fde38b146101385763f5763da314610119575f80fd5b34610134575f36600319011261013457602060405160c88152f35b5f80fd5b3461013457602036600319011261013457610151611047565b6101596113c1565b6001600160a01b031680156101ab57600680546001600160a01b0319811683179091556001600160a01b03167f8be0079c531659141344cd1fd0a4f28419497f9722a3daafe3b4186f6b6457e05f80a3005b631e4fbdf760e01b5f525f60045260245ffd5b34610134576040366003190112610134576101d7611047565b6101df61105d565b9060018060a01b03165f52600560205260405f209060018060a01b03165f52602052602060ff60405f2054166040519015158152f35b346101345760203660031901126101345760a0610254600435600781069160078083040691600760318204069160076109618161015785040693040690565b926040929192519485526020850152604084015260608301526080820152f35b34610134576020366003190112610134576004356102918161138d565b506040516102a16101c0826110c8565b61019081527f303030303030303030303030303030303030303030303030303030303030303060208201527f303030303030303030313030303030303030303030303030303031303031313060408201527f303030303034343030303030303131303031313031303030323434323030303160608201527f303131303031313131303034343434343430303131313130303131313131343460808201527f343434343434313131313130303031313130343434343434343430313131303060a08201527f303030303030343434343434343430303030303030303030303030303433333460c08201527f303030303030303030303030303030303433333430303030303030303030303060e08201527f30303030343333343030303030303030303030303030303034333334303030306101008201527f30303030303030303030303034333334303030303030303030303030303030346101208201527f34343434343030303030303030303030303034343434343434343030303030306101408201527f30303030303030343434343434303030303030303030303030303030343434346101608201527f30303030303030303030303030303030303434303030303030303030303030306101808201526f0303030303030303030303030303030360841b6101a08201526060905f5b601481106107475750506104a4611794565b6104ac611794565b916104b5611794565b6104bd611794565b90604051948594602086017f3c73766720786d6c6e733d22687474703a2f2f7777772e77332e6f72672f323090526e181817b9bb3391103bb4b23a341e9160891b604087015280516020819201604f88015e85016911103432b4b3b43a1e9160b11b604f82015281516020819301605983015e01604f016e011103b34b2bba137bc1e911810181608d1b600a82015281516020819301601983015e01600a01600f8101600160fd1b905281516020819301601083015e01600f01600181017f222073686170652d72656e646572696e673d2263726973704564676573223e00905281516020819301602083015e01600101601f8101651e17b9bb339f60d11b905203601f01601919810182526006016105d690826110c8565b6105df90611a5d565b906105e990611801565b604051918291727b226e616d65223a22436c617750756e6b202360681b602084015280516020819201603385015e7f222c226465736372697074696f6e223a2246756c6c79206f6e636861696e20436033918401918201527f6c617750756e6b2e20323078323020706978656c206172742e2200000000000060538201527f2c22696d616765223a22646174613a696d6167652f7376672b786d6c3b626173606d82015263194d8d0b60e21b608d8201528151918290602001609183015e0160330161227d60f01b605e82015203605e01601d19810182526002016106ce90826110c8565b6106d790611a5d565b6040518091602082017f646174613a6170706c69636174696f6e2f6a736f6e3b6261736536342c000000905280516020819201603d84015e8101603d81015f905203603d01601f198101825261072d90826110c8565b6040518091602082526020820161074391611023565b0390f35b5f5b6014811061075a5750600101610492565b919390926014840290848204601414851517156108c55761077b8483611372565b86518110156108d95786016020015160f81c602f190160ff81116108c557836107a391611968565b60148502858104601414861517156108c5576107be90611801565b926107c890611801565b6107d0611719565b6107d8611719565b9160405195858796516020819201602089015e8601681e3932b1ba103c1e9160b91b602082015281516020819301602983015e016020016411103c9e9160d91b600982015281516020819301600e83015e016009016811103bb4b23a341e9160b91b600582015281516020819301600e83015e016005016911103432b4b3b43a1e9160b11b600982015281516020819301601383015e016009016711103334b6361e9160c11b600a82015281516020819301601283015e01600a016211179f60e91b600882015203600801601c19810182526003016108b790826110c8565b916001019391929093610749565b634e487b7160e01b5f52601160045260245ffd5b634e487b7160e01b5f52603260045260245ffd5b6110ad565b346101345760803660031901126101345761090b611047565b61091361105d565b906044356064359267ffffffffffffffff8411610134573660238501121561013457836004013592610944846110fe565b9361095260405195866110c8565b8085523660248288010111610134576020815f926024610986990183890137860101526109808383836111d2565b336115f5565b005b34610134576040366003190112610134576109a1611047565b60243590811515809203610134576001600160a01b0316908115610a1057335f52600560205260405f20825f5260205260405f2060ff1981541660ff83161790556040519081527f17307eab39ab6107e8899845ad3d59bd9653f200f220920489ca2b5937696c3160203392a3005b50630b61174360e31b5f5260045260245ffd5b34610134575f366003190112610134576040515f6001548060011c90600181168015610b21575b602083108114610b0d57828552908115610ae95750600114610a8b575b61074383610a77818503826110c8565b604051918291602083526020830190611023565b60015f9081527fb10e2d527612073b26eecdfd717e6a320cf44b4afac2b0732d9fcbe2b7fa0cf6939250905b808210610acf57509091508101602001610a77610a67565b919260018160209254838588010152019101909291610ab7565b60ff191660208086019190915291151560051b84019091019150610a779050610a67565b634e487b7160e01b5f52602260045260245ffd5b91607f1691610a4a565b34610134575f366003190112610134576006546040516001600160a01b039091168152602090f35b34610134575f36600319011261013457610b6b6113c1565b600680546001600160a01b031981169091555f906001600160a01b03167f8be0079c531659141344cd1fd0a4f28419497f9722a3daafe3b4186f6b6457e08280a3005b34610134576020366003190112610134576001600160a01b03610bcf611047565b168015610bec575f526003602052602060405f2054604051908152f35b6322718ad960e21b5f525f60045260245ffd5b34610134576020366003190112610134576020610c1d60043561138d565b6040516001600160a01b039091168152f35b3461013457610986610c4036611073565b9060405192610c506020856110c8565b5f84526109808383836111d2565b3461013457602036600319011261013457610c77611047565b610c7f6113c1565b60075480612710039061271082116108c55761271014610cd65760c88110610cd1575060c85b5f5b818110610cb057005b600190610ccb600754610cc28161137f565b600755856113e8565b01610ca7565b610ca5565b60405162461bcd60e51b8152602060048201526014602482015273105b1c9958591e48199d5b1b1e481b5a5b9d195960621b6044820152606490fd5b34610134575f3660031901126101345760206040516127108152f35b3461013457604036600319011261013457610d47611047565b602435610d526113c1565b612710610d6182600754611372565b11610d89575f5b818110610d7157005b600190610d83600754610cc28161137f565b01610d68565b60405162461bcd60e51b815260206004820152601260248201527145786365656473206d617820737570706c7960701b6044820152606490fd5b3461013457610986610dd436611073565b916111d2565b3461013457604036600319011261013457610df3611047565b602435610dff8161138d565b33151580610eb1575b80610e84575b610e715781906001600160a01b0384811691167f8c5be1e5ebec7d5bd14f71427d1e84f3dd0314c0f7b2291e5b200ac8c7c3b9255f80a45f90815260046020526040902080546001600160a01b0319166001600160a01b03909216919091179055005b63a9fbf51f60e01b5f523360045260245ffd5b506001600160a01b0381165f90815260056020908152604080832033845290915290205460ff1615610e0e565b506001600160a01b038116331415610e08565b3461013457602036600319011261013457600435610ee18161138d565b505f526004602052602060018060a01b0360405f205416604051908152f35b34610134575f366003190112610134576040515f5f548060011c90600181168015610fae575b602083108114610b0d57828552908115610ae95750600114610f525761074383610a77818503826110c8565b5f8080527f290decd9548b62a8d60345a988386fc84ba6bc95484008f6362f93160ef3e563939250905b808210610f9457509091508101602001610a77610a67565b919260018160209254838588010152019101909291610f7c565b91607f1691610f26565b34610134576020366003190112610134576004359063ffffffff60e01b8216809203610134576020916380ac58cd60e01b8114908115611012575b8115611001575b5015158152f35b6301ffc9a760e01b14905083610ffa565b635b5e139f60e01b81149150610ff3565b805180835260209291819084018484015e5f828201840152601f01601f1916010190565b600435906001600160a01b038216820361013457565b602435906001600160a01b038216820361013457565b6060906003190112610134576004356001600160a01b038116810361013457906024356001600160a01b0381168103610134579060443590565b34610134575f36600319011261013457602060405160148152f35b90601f8019910116810190811067ffffffffffffffff8211176110ea57604052565b634e487b7160e01b5f52604160045260245ffd5b67ffffffffffffffff81116110ea57601f01601f191660200190565b90604051915f8154908160011c92600183169283156111c8575b602085108414610b0d5784875286939081156111a65750600114611162575b50611160925003836110c8565b565b90505f9291925260205f20905f915b81831061118a575050906020611160928201015f611153565b6020919350806001915483858901015201910190918492611171565b90506020925061116094915060ff191682840152151560051b8201015f611153565b93607f1693611134565b6001600160a01b039091169190821561135f575f828152600260205260409020546001600160a01b0316928290331515806112ca575b5084611297575b805f52600360205260405f2060018154019055815f52600260205260405f20816bffffffffffffffffffffffff60a01b825416179055847fddf252ad1be2c89b69c2b068fc378daa952ba7f163c4a11628f55a4df523b3ef5f80a46001600160a01b031680830361127f57505050565b6364283d7b60e01b5f5260045260245260445260645ffd5b5f82815260046020526040902080546001600160a01b0319169055845f52600360205260405f205f19815401905561120f565b9091508061130e575b156112e05782905f611208565b82846112f857637e27328960e01b5f5260045260245ffd5b63177e802f60e01b5f523360045260245260445ffd5b50338414801561133d575b806112d357505f838152600460205260409020546001600160a01b031633146112d3565b505f84815260056020908152604080832033845290915290205460ff16611319565b633250574960e11b5f525f60045260245ffd5b919082018092116108c557565b5f1981146108c55760010190565b5f818152600260205260409020546001600160a01b03169081156113af575090565b637e27328960e01b5f5260045260245ffd5b6006546001600160a01b031633036113d557565b63118cdaa760e01b5f523360045260245ffd5b90602090604051906113fa83836110c8565b5f82526001600160a01b03841693841561135f575f8281526002855260409020546001600160a01b031680151590816115c4575b865f526003865260405f2060018154019055835f526002865260405f20876bffffffffffffffffffffffff60a01b8254161790558387827fddf252ad1be2c89b69c2b068fc378daa952ba7f163c4a11628f55a4df523b3ef5f80a4506115b1573b61149a575b50505050565b916114d791819495936040519384928392630a85bd0160e11b84523360048501525f60248501526044840152608060648401526084830190611023565b03815f885af15f9181611571575b5061153a5750503d15611532573d906114fd826110fe565b9161150b60405193846110c8565b82523d5f8284013e5b8151918261152f5783633250574960e11b5f5260045260245ffd5b01fd5b606090611514565b909291506001600160e01b03191663757a42ff60e11b0161155f57505f808080611494565b633250574960e11b5f5260045260245ffd5b9091508381813d83116115aa575b61158981836110c8565b8101031261013457516001600160e01b03198116810361013457905f6114e5565b503d61157f565b6339e3563760e11b5f525f60045260245ffd5b5f8481526004602052604080822080546001600160a01b031916905582825260038852902080545f1901905561142e565b823b611603575b5050505050565b604051630a85bd0160e11b81526001600160a01b03918216600482015291811660248301526044820193909352608060648201529116916020908290819061164f906084830190611023565b03815f865af15f91816116d4575b506116b257503d156116ab573d611673816110fe565b9061168160405192836110c8565b81523d5f602083013e5b805190816116a65782633250574960e11b5f5260045260245ffd5b602001fd5b606061168b565b6001600160e01b03191663757a42ff60e11b0161155f57505f808080806115fc565b9091506020813d602011611711575b816116f0602093836110c8565b8101031261013457516001600160e01b03198116810361013457905f61165d565b3d91506116e3565b6001601461172760026110fe565b9161173560405193846110c8565b60028352601f1961174660026110fe565b0136602085013760228301815b61175e575b50505090565b5f190191600a906f181899199a1a9b1b9c1cb0b131b232b360811b8282061a84530490811561178f57909181611753565b611758565b6101906117a160036110fe565b906117af60405192836110c8565b60038252601f196117c060036110fe565b01366020840137600a602383015b5f1901916f181899199a1a9b1b9c1cb0b131b232b360811b8282061a83530480156117fc57600a90916117ce565b505090565b805f9172184f03e93ff9f4daa797ed6e38ed64bf6a1f0160401b821015611945575b806d04ee2d6d415b85acef8100000000600a92101561192a575b662386f26fc10000811015611916575b6305f5e100811015611905575b6127108110156118f6575b60648110156118e8575b10156118dd575b600a60216001840193611888856110fe565b9461189660405196876110c8565b8086526118a5601f19916110fe565b013660208701378401015f1901916f181899199a1a9b1b9c1cb0b131b232b360811b8282061a83530480156117fc57600a90916117ce565b600190910190611876565b60646002910493019261186f565b61271060049104930192611865565b6305f5e1006008910493019261185a565b662386f26fc100006010910493019261184d565b6d04ee2d6d415b85acef81000000006020910493019261183d565b506040915072184f03e93ff9f4daa797ed6e38ed64bf6a1f0160401b8104611823565b9061199560ff91600781069160078083040691600760318204069160076109618161015785040693040690565b91929490939516928315611a435760018414611a28575060028314611a0e5750600382146119f557506004146119de575060078110156108d9576119db9060080161111a565b90565b905060078110156108d9576119db9060080161111a565b9250505060078110156108d9576119db9060080161111a565b935050505060078110156108d9576119db9060080161111a565b94505050505060078110156108d9576119db9060080161111a565b505050505060078110156108d9576119db9060080161111a565b90815115611b7c578151600281018091116108c55760039004600281901b91906001600160fe1b038116036108c557604051917f4142434445464748494a4b4c4d4e4f505152535455565758595a616263646566601f527f6768696a6b6c6d6e6f707172737475767778797a303132333435363738392b2f603f52602083018480518101602081018051915f82525b808910611b405750602095969750906003929152510680600114611b2b57600214611b1e575b50808452830101604052565b603d905f1901535f611b12565b50603d90815f1982015360011901535f611b12565b939760036004910198603f8a51818160121c165183538181600c1c16516001840153818160061c16516002840153165160038201530193611aec565b9050604051611b8c6020826110c8565b5f81529056fea2646970667358221220f8214b3d5b3037494c9e004f5129d0dc76cca5c5bd0c5265943bd16d66e1de3364736f6c634300081c0033","linkReferences":{}},"methodIdentifiers":{"GRID_SIZE()":"7fc4eda8","MAX_SUPPLY()":"32cb6b0c","PIXEL()":"b92f61e0","PREMINT_BATCH_SIZE()":"f5763da3","approve(address,uint256)":"095ea7b3","balanceOf(address)":"70a08231","getApproved(uint256)":"081812fc","getTraits(uint256)":"e1dc0761","isApprovedForAll(address,address)":"e985e9c5","name()":"06fdde03","owner()":"8da5cb5b","ownerOf(uint256)":"6352211e","premint(address,uint256)":"2b5e3e26","premintAll(address)":"3dc313f6","renounceOwnership()":"715018a6","safeTransferFrom(address,address,uint256)":"42842e0e","safeTransferFrom(address,address,uint256,bytes)":"b88d4fde","setApprovalForAll(address,bool)":"a22cb465","supportsInterface(bytes4)":"01ffc9a7","symbol()":"95d89b41","tokenURI(uint256)":"c87b56dd","transferFrom(address,address,uint256)":"23b872dd","transferOwnership(address)":"f2fde38b"},"id":36}