{"abi":[{"type":"constructor","inputs":[],"stateMutability":"nonpayable"},{"type":"function","name":"BATCH_SIZE","inputs":[],"outputs":[{"name":"","type":"uint256","internalType":"uint256"}],"stateMutability":"view"},{"type":"function","name":"DEFAULT_TRANSFER_VALIDATOR","inputs":[],"outputs":[{"name":"","type":"address","internalType":"address"}],"stateMutability":"view"},{"type":"function","name":"GRID_SIZE","inputs":[],"outputs":[{"name":"","type":"uint256","internalType":"uint256"}],"stateMutability":"view"},{"type":"function","name":"MAX_SUPPLY","inputs":[],"outputs":[{"name":"","type":"uint256","internalType":"uint256"}],"stateMutability":"view"},{"type":"function","name":"PIXEL","inputs":[],"outputs":[{"name":"","type":"uint256","internalType":"uint256"}],"stateMutability":"view"},{"type":"function","name":"PREMINT_BATCH_SIZE","inputs":[],"outputs":[{"name":"","type":"uint256","internalType":"uint256"}],"stateMutability":"view"},{"type":"function","name":"ROYALTY_BPS","inputs":[],"outputs":[{"name":"","type":"uint256","internalType":"uint256"}],"stateMutability":"view"},{"type":"function","name":"approve","inputs":[{"name":"to","type":"address","internalType":"address"},{"name":"tokenId","type":"uint256","internalType":"uint256"}],"outputs":[],"stateMutability":"nonpayable"},{"type":"function","name":"autoApproveTransfersFromValidator","inputs":[],"outputs":[{"name":"","type":"bool","internalType":"bool"}],"stateMutability":"view"},{"type":"function","name":"balanceOf","inputs":[{"name":"owner","type":"address","internalType":"address"}],"outputs":[{"name":"","type":"uint256","internalType":"uint256"}],"stateMutability":"view"},{"type":"function","name":"getApproved","inputs":[{"name":"tokenId","type":"uint256","internalType":"uint256"}],"outputs":[{"name":"","type":"address","internalType":"address"}],"stateMutability":"view"},{"type":"function","name":"getTraits","inputs":[{"name":"tokenId","type":"uint256","internalType":"uint256"}],"outputs":[{"name":"bgIdx","type":"uint256","internalType":"uint256"},{"name":"bodyIdx","type":"uint256","internalType":"uint256"},{"name":"eyeIdx","type":"uint256","internalType":"uint256"}],"stateMutability":"pure"},{"type":"function","name":"getTransferValidationFunction","inputs":[],"outputs":[{"name":"functionSignature","type":"bytes4","internalType":"bytes4"},{"name":"isViewFunction","type":"bool","internalType":"bool"}],"stateMutability":"pure"},{"type":"function","name":"getTransferValidator","inputs":[],"outputs":[{"name":"validator","type":"address","internalType":"address"}],"stateMutability":"view"},{"type":"function","name":"isApprovedForAll","inputs":[{"name":"owner","type":"address","internalType":"address"},{"name":"operator","type":"address","internalType":"address"}],"outputs":[{"name":"isApproved","type":"bool","internalType":"bool"}],"stateMutability":"view"},{"type":"function","name":"name","inputs":[],"outputs":[{"name":"","type":"string","internalType":"string"}],"stateMutability":"view"},{"type":"function","name":"owner","inputs":[],"outputs":[{"name":"","type":"address","internalType":"address"}],"stateMutability":"view"},{"type":"function","name":"ownerOf","inputs":[{"name":"tokenId","type":"uint256","internalType":"uint256"}],"outputs":[{"name":"","type":"address","internalType":"address"}],"stateMutability":"view"},{"type":"function","name":"premint","inputs":[{"name":"to","type":"address","internalType":"address"},{"name":"quantity","type":"uint256","internalType":"uint256"}],"outputs":[],"stateMutability":"nonpayable"},{"type":"function","name":"premintBatch","inputs":[{"name":"to","type":"address","internalType":"address"}],"outputs":[],"stateMutability":"nonpayable"},{"type":"function","name":"renounceOwnership","inputs":[],"outputs":[],"stateMutability":"nonpayable"},{"type":"function","name":"royaltyInfo","inputs":[{"name":"_tokenId","type":"uint256","internalType":"uint256"},{"name":"_salePrice","type":"uint256","internalType":"uint256"}],"outputs":[{"name":"","type":"address","internalType":"address"},{"name":"","type":"uint256","internalType":"uint256"}],"stateMutability":"view"},{"type":"function","name":"safeTransferFrom","inputs":[{"name":"from","type":"address","internalType":"address"},{"name":"to","type":"address","internalType":"address"},{"name":"tokenId","type":"uint256","internalType":"uint256"}],"outputs":[],"stateMutability":"nonpayable"},{"type":"function","name":"safeTransferFrom","inputs":[{"name":"from","type":"address","internalType":"address"},{"name":"to","type":"address","internalType":"address"},{"name":"tokenId","type":"uint256","internalType":"uint256"},{"name":"data","type":"bytes","internalType":"bytes"}],"outputs":[],"stateMutability":"nonpayable"},{"type":"function","name":"setApprovalForAll","inputs":[{"name":"operator","type":"address","internalType":"address"},{"name":"approved","type":"bool","internalType":"bool"}],"outputs":[],"stateMutability":"nonpayable"},{"type":"function","name":"setAutomaticApprovalOfTransfersFromValidator","inputs":[{"name":"autoApprove","type":"bool","internalType":"bool"}],"outputs":[],"stateMutability":"nonpayable"},{"type":"function","name":"setRoyaltyReceiver","inputs":[{"name":"receiver","type":"address","internalType":"address"}],"outputs":[],"stateMutability":"nonpayable"},{"type":"function","name":"setTransferValidator","inputs":[{"name":"transferValidator_","type":"address","internalType":"address"}],"outputs":[],"stateMutability":"nonpayable"},{"type":"function","name":"supportsInterface","inputs":[{"name":"interfaceId","type":"bytes4","internalType":"bytes4"}],"outputs":[{"name":"","type":"bool","internalType":"bool"}],"stateMutability":"view"},{"type":"function","name":"symbol","inputs":[],"outputs":[{"name":"","type":"string","internalType":"string"}],"stateMutability":"view"},{"type":"function","name":"tokenURI","inputs":[{"name":"tokenId","type":"uint256","internalType":"uint256"}],"outputs":[{"name":"","type":"string","internalType":"string"}],"stateMutability":"view"},{"type":"function","name":"transferFrom","inputs":[{"name":"from","type":"address","internalType":"address"},{"name":"to","type":"address","internalType":"address"},{"name":"tokenId","type":"uint256","internalType":"uint256"}],"outputs":[],"stateMutability":"nonpayable"},{"type":"function","name":"transferOwnership","inputs":[{"name":"newOwner","type":"address","internalType":"address"}],"outputs":[],"stateMutability":"nonpayable"},{"type":"event","name":"Approval","inputs":[{"name":"owner","type":"address","indexed":true,"internalType":"address"},{"name":"approved","type":"address","indexed":true,"internalType":"address"},{"name":"tokenId","type":"uint256","indexed":true,"internalType":"uint256"}],"anonymous":false},{"type":"event","name":"ApprovalForAll","inputs":[{"name":"owner","type":"address","indexed":true,"internalType":"address"},{"name":"operator","type":"address","indexed":true,"internalType":"address"},{"name":"approved","type":"bool","indexed":false,"internalType":"bool"}],"anonymous":false},{"type":"event","name":"AutomaticApprovalOfTransferValidatorSet","inputs":[{"name":"autoApproved","type":"bool","indexed":false,"internalType":"bool"}],"anonymous":false},{"type":"event","name":"DefaultRoyaltySet","inputs":[{"name":"receiver","type":"address","indexed":true,"internalType":"address"},{"name":"feeNumerator","type":"uint96","indexed":false,"internalType":"uint96"}],"anonymous":false},{"type":"event","name":"OwnershipTransferred","inputs":[{"name":"previousOwner","type":"address","indexed":true,"internalType":"address"},{"name":"newOwner","type":"address","indexed":true,"internalType":"address"}],"anonymous":false},{"type":"event","name":"TokenRoyaltySet","inputs":[{"name":"tokenId","type":"uint256","indexed":true,"internalType":"uint256"},{"name":"receiver","type":"address","indexed":true,"internalType":"address"},{"name":"feeNumerator","type":"uint96","indexed":false,"internalType":"uint96"}],"anonymous":false},{"type":"event","name":"Transfer","inputs":[{"name":"from","type":"address","indexed":true,"internalType":"address"},{"name":"to","type":"address","indexed":true,"internalType":"address"},{"name":"tokenId","type":"uint256","indexed":true,"internalType":"uint256"}],"anonymous":false},{"type":"event","name":"TransferValidatorUpdated","inputs":[{"name":"oldValidator","type":"address","indexed":false,"internalType":"address"},{"name":"newValidator","type":"address","indexed":false,"internalType":"address"}],"anonymous":false},{"type":"error","name":"CreatorTokenBase__InvalidTransferValidatorContract","inputs":[]},{"type":"error","name":"ShouldNotMintToBurnAddress","inputs":[]}],"bytecode":{"object":"0x60806040523461083a575f604051610018604082610b2e565b6009815268436c617750756e6b7360b81b602082015260405161003c604082610b2e565b6009815268434c415750554e4b5360b81b602082015260405192610061602085610b2e565b5f845260405193610073602086610b2e565b5f85528051906001600160401b0382116108ed576100915f54610b51565b601f8111610ac6575b50602090601f8311600114610a63576100ca92915f91836106cd575b50508160011b915f199060031b1c19161790565b5f555b83516001600160401b0381116108ed576100e8600154610b51565b601f8111610a15575b50602094601f82116001146109b2576101239293949582915f926106cd5750508160011b915f199060031b1c19161790565b6001555b82516001600160401b0381116108ed57610142600654610b51565b601f8111610964575b506020601f821160011461090157819061017b9394955f926106cd5750508160011b915f199060031b1c19161790565b6006555b81516001600160401b0381116108ed5761019a600754610b51565b601f811161089f575b50602092601f821160011461083e576101d3929382915f926106cd5750508160011b915f199060031b1c19161790565b6007555b60088054336001600160a01b031982168117909255604080517fcc5dc080ff977b3c3a211fa63ab74f90f658f5ba9d3236e92c8f59570f442aac9391929091906001600160a01b03167f8be0079c531659141344cd1fd0a4f28419497f9722a3daafe3b4186f6b6457e05f80a35f815273721c008fdff27bf06e7e123956e2fe03b63342e36020820152a173721c008fdff27bf06e7e123956e2fe03b63342e33b6107c9575b331561078457604080519081016001600160401b03811182821017610770576040908152338083526101f46020938401819052607d60a21b8217600a559151918252917f8a8bae378cb731c5c40b632330c6836c2f916f48edb967699c86736f9a6a76ef91a26040516102ef81610b13565b6040516102fd604082610b2e565b60078152660233030303030360cc1b60208201528152604051610321604082610b2e565b600781526611a3232323232360c91b60208201526020820152604051610348604082610b2e565b60078152660234531303630360cc1b6020820152604082015260405161036f604082610b2e565b60078152660234646423030360cc1b60208201526060820152604051610396604082610b2e565b60078152660233030413030360cc1b602082015260808201526040516103bd604082610b2e565b60078152661198181a1ba32360c91b602082015260a08201526040516103e4604082610b2e565b6007815266119c211aa0992160c91b602082015260c0820152600d9082905b60078210610661578360405161041881610b13565b604051610426604082610b2e565b6005815264426c61636b60d81b60208201528152604051610448604082610b2e565b6005815264576869746560d81b6020820152602082015260405161046d604082610b2e565b600381526214995960ea1b60208201526040820152604051610490604082610b2e565b600681526559656c6c6f7760d01b602082015260608201526040516104b6604082610b2e565b600581526423b932b2b760d91b602082015260808201526040516104db604082610b2e565b6004815263426c756560e01b602082015260a08201526040516104ff604082610b2e565b6005815264213937bbb760d91b602082015260c082015260149082905b600782106105335760405161337b9081610ba08239f35b80518051906001600160401b03821161064d576105508554610b51565b601f8111610612575b50602090601f83116001146105aa5792610590836001959460209487968b9261059f5750508160011b915f199060031b1c19161790565b86555b0193019101909161051c565b015190508a806100b6565b8587528187209190601f198416885b8181106105fa57509360209360019693879693838895106105e2575b505050811b018655610593565b01515f1960f88460031b161c191690558980806105d5565b929360206001819287860151815501950193016105b9565b61063d9086885260208820601f850160051c81019160208610610643575b601f0160051c0190610b89565b86610559565b9091508190610630565b634e487b7160e01b86526041600452602486fd5b80518051906001600160401b03821161064d5761067e8554610b51565b601f8111610740575b50602090601f83116001146106d857926106be836001959460209487968b926106cd5750508160011b915f199060031b1c19161790565b86555b01930191019091610403565b015190505f806100b6565b8587528187209190601f198416885b8181106107285750936020936001969387969383889510610710575b505050811b0186556106c1565b01515f1960f88460031b161c191690555f8080610703565b929360206001819287860151815501950193016106e7565b61076a9086885260208820601f850160051c8101916020861061064357601f0160051c0190610b89565b5f610687565b634e487b7160e01b83526041600452602483fd5b60405162461bcd60e51b815260206004820152601960248201527f455243323938313a20696e76616c6964207265636569766572000000000000006044820152606490fd5b73721c008fdff27bf06e7e123956e2fe03b63342e33b1561083a5760405163fb2de5d760e01b81523060048201526102d160248201525f816044818373721c008fdff27bf06e7e123956e2fe03b63342e35af1610827575b5061027d565b61083391505f90610b2e565b5f5f610821565b5f80fd5b601f1982169360075f52805f20915f5b868110610887575083600195961061086f575b505050811b016007556101d7565b01515f1960f88460031b161c191690555f8080610861565b9192602060018192868501518155019401920161084e565b60075f526108e7907fa66cc928b5edb82af9bd49922954155ab7b0942694bea4ce44661d9a8736c688601f840160051c8101916020851061064357601f0160051c0190610b89565b5f6101a3565b634e487b7160e01b5f52604160045260245ffd5b601f1982169060065f52805f20915f5b81811061094c57509583600195969710610934575b505050811b0160065561017f565b01515f1960f88460031b161c191690555f8080610926565b9192602060018192868b015181550194019201610911565b60065f526109ac907ff652222313e28459528d920b65115c16c04f3efc82aaedc97be59f3f377c0d3f601f840160051c8101916020851061064357601f0160051c0190610b89565b5f61014b565b601f1982169560015f52805f20915f5b8881106109fd575083600195969798106109e5575b505050811b01600155610127565b01515f1960f88460031b161c191690555f80806109d7565b919260206001819286850151815501940192016109c2565b60015f52610a5d907fb10e2d527612073b26eecdfd717e6a320cf44b4afac2b0732d9fcbe2b7fa0cf6601f840160051c8101916020851061064357601f0160051c0190610b89565b5f6100f1565b90601f198316915f8052815f20925f5b818110610aae5750908460019594939210610a96575b505050811b015f556100cd565b01515f1960f88460031b161c191690555f8080610a89565b92936020600181928786015181550195019301610a73565b5f8052610b0d907f290decd9548b62a8d60345a988386fc84ba6bc95484008f6362f93160ef3e563601f850160051c8101916020861061064357601f0160051c0190610b89565b5f61009a565b60e081019081106001600160401b038211176108ed57604052565b601f909101601f19168101906001600160401b038211908210176108ed57604052565b90600182811c92168015610b7f575b6020831014610b6b57565b634e487b7160e01b5f52602260045260245ffd5b91607f1691610b60565b818110610b94575050565b5f8155600101610b8956fe6080806040526004361015610012575f80fd5b5f5f3560e01c91826301463546146112cc5750816301ffc9a71461120e57816306fdde0314611169578163081812fc1461114b578163095ea7b314610fdf578163098144d414610fc55781630d705df614610f9e57816323b872dd14610f7a5781632a55205a14610ec55781632b5e3e2614610e3057816332cb6b0c14610e1457816342842e0e14610de057816349c657db14610dc457816349faa4d4146101895781636221d13c14610d9f5781636352211e14610d6f57816370a0823114610cda57816370bce82d14610c12578163715018a614610bb75781637fc4eda8146106f25781638da5cb5b14610b8f5781638dc251e314610ac157816395d89b41146109f75781639e05d2401461098b578163a22cb465146108bd578163a9fc664e146107aa578163b88d4fde146106f7578163b92f61e0146106f2578163c87b56dd146102c0578163e1dc07611461028f578163e985e9c514610259578163f2fde38b1461018e575063f5763da314610189575f80fd5b611382565b34610256576020366003190112610256576101a761131c565b6101af6119c8565b6001600160a01b0316801561020257600880546001600160a01b0319811683179091556001600160a01b03167f8be0079c531659141344cd1fd0a4f28419497f9722a3daafe3b4186f6b6457e08380a380f35b60405162461bcd60e51b815260206004820152602660248201527f4f776e61626c653a206e6577206f776e657220697320746865207a65726f206160448201526564647265737360d01b6064820152608490fd5b80fd5b3461025657604036600319011261025657602061028561027761131c565b61027f611332565b906116d0565b6040519015158152f35b346102565760203660031901126102565760606102ad600435612419565b9060405192835260208301526040820152f35b34610256576020366003190112610256576004356102dd81611641565b506102ef6102ea82611c18565b6122d6565b90610348811061056d57603d6105699361050960206102ea600260108398604a858a60338261041d816105559f8a60b161032b61041793612560565b604080517f7b2274726169745f74797065223a224261636b67726f756e64222c2276616c75878201526865223a22526177227d60b81b918101919091527f2c7b2274726169745f74797065223a22426f6479222c2276616c7565223a22526049820152636177227d60e01b606982018190527f2c7b2274726169745f74797065223a2245796573222c2276616c7565223a2252606d830152608d8201527f2c7b2274726169745f74797065223a225374616765222c2276616c7565223a2260918201528151909586928291018484015e810161227d60f01b838201520301601d198101845201826113e8565b936126af565b604051727b226e616d65223a22436c617750756e6b202360681b8c8201528151909b8c9892829101858a015e8701907f222c226465736372697074696f6e223a22546865204669727374204167656e7484830152651027232a171160d11b60538301527f2c22696d616765223a22646174613a696d6167652f7376672b786d6c3b626173605983015263194d8d0b60e21b6079830152805192839101607d83015e010190601160f91b848301526e2c2261747472696275746573223a5b60881b604b830152805192839101605a83015e0101615d7d60f01b838201520301601d198101845201826113e8565b906040519485927f646174613a6170706c69636174696f6e2f6a736f6e3b6261736536342c000000828501528051918291018585015e820190838201520301601f1981018352826113e8565b6040519182916020835260208301906112f8565b0390f35b61057681612419565b60078310156106de5760078210156106de5760078110156106de5760206102ea600260108398604a858a6033826105699f9b61061c6105559f603d9f60226105099f918661041d968f9461068a9060216106536105d56104179a612560565b94826040519c8d997f7b2274726169745f74797065223a224261636b67726f756e64222c2276616c758a8c01526332911d1160e11b60408c015260448b0190601401611666565b61227d60f01b81527f2c7b2274726169745f74797065223a22426f6479222c2276616c7565223a22008c8201520190601401611666565b61227d60f01b81527f2c7b2274726169745f74797065223a2245796573222c2276616c7565223a2200898201520190601401611666565b61227d60f01b81527f2c7b2274726169745f74797065223a225374616765222c2276616c7565223a228682015281519290918391018583015e0161227d60f01b838201520301601d198101845201826113e8565b634e487b7160e01b86526032600452602486fd5b61139d565b346102565760803660031901126102565761071061131c565b610718611332565b6064359160443567ffffffffffffffff84116107a657366023850112156107a6578360040135926107488461140a565b9261075660405194856113e8565b8484528636602487890101116102565760208661079e9760246107a39a01838901378601015261078e6107898433611737565b611578565b6107998383836117f0565b612908565b611bf4565b80f35b8480fd5b346108a25760203660031901126108a2576107c361131c565b6107cb6119c8565b6001600160a01b0381169081151580823b15816108b5575b506108a6577fcc5dc080ff977b3c3a211fa63ab74f90f658f5ba9d3236e92c8f59570f442aac604061081361153a565b81516001600160a01b03909116815260208101869052a16008805460ff60a01b1916600160a01b179055600980546001600160a01b03191684179055610857578280f35b3b610862575b808280f35b803b156108a2575f809160446040518094819363fb2de5d760e01b83523060048401526102d160248401525af11561085d576108a091505f906113e8565b005b5f80fd5b6332483afb60e01b5f5260045ffd5b9050856107e3565b346108a25760403660031901126108a2576108d661131c565b602435908115158092036108a2576001600160a01b03169033821461094657335f52600560205260405f20825f5260205260405f2060ff1981541660ff83161790556040519081527f17307eab39ab6107e8899845ad3d59bd9653f200f220920489ca2b5937696c3160203392a3005b60405162461bcd60e51b815260206004820152601960248201527f4552433732313a20617070726f766520746f2063616c6c6572000000000000006044820152606490fd5b346108a25760203660031901126108a2576004358015158091036108a25760207f6787c7f9a80aa0f5ceddab2c54f1f5169c0b88e75dd5e19d5e858a64144c7dbc916109d56119c8565b6009805460ff60a01b191660a083901b60ff60a01b16179055604051908152a1005b346108a2575f3660031901126108a2576040515f600754610a1781611426565b8084529060018116908115610a9d5750600114610a3f575b61056983610555818503826113e8565b60075f9081527fa66cc928b5edb82af9bd49922954155ab7b0942694bea4ce44661d9a8736c688939250905b808210610a8357509091508101602001610555610a2f565b919260018160209254838588010152019101909291610a6b565b60ff191660208086019190915291151560051b840190910191506105559050610a2f565b346108a25760203660031901126108a257610ada61131c565b610ae26119c8565b6001600160a01b03168015610b4a576101f46020604051610b02816113b8565b83815201526001600160a01b038116607d60a21b17600a556040516101f481527f8a8bae378cb731c5c40b632330c6836c2f916f48edb967699c86736f9a6a76ef90602090a2005b60405162461bcd60e51b815260206004820152601960248201527f455243323938313a20696e76616c6964207265636569766572000000000000006044820152606490fd5b346108a2575f3660031901126108a2576008546040516001600160a01b039091168152602090f35b346108a2575f3660031901126108a257610bcf6119c8565b600880546001600160a01b031981169091555f906001600160a01b03167f8be0079c531659141344cd1fd0a4f28419497f9722a3daafe3b4186f6b6457e08280a3005b346108a25760203660031901126108a257610c2b61131c565b610c336119c8565b600c548061034c039061034c8211610cc65761034c14610c8a5760d28110610c85575060d25b5f5b818110610c6457005b600190610c7f600c54610c76816115e7565b600c5585611a20565b01610c5b565b610c59565b60405162461bcd60e51b8152602060048201526014602482015273105b1c9958591e48199d5b1b1e481b5a5b9d195960621b6044820152606490fd5b634e487b7160e01b5f52601160045260245ffd5b346108a25760203660031901126108a2576001600160a01b03610cfb61131c565b168015610d18575f526003602052602060405f2054604051908152f35b60405162461bcd60e51b815260206004820152602960248201527f4552433732313a2061646472657373207a65726f206973206e6f7420612076616044820152683634b21037bbb732b960b91b6064820152608490fd5b346108a25760203660031901126108a2576020610d8d600435611641565b6040516001600160a01b039091168152f35b346108a2575f3660031901126108a257602060ff60095460a01c166040519015158152f35b346108a2575f3660031901126108a25760206040516101f48152f35b346108a2576108a061079e610df436611348565b9060405192610e046020856113e8565b5f845261078e6107898433611737565b346108a2575f3660031901126108a257602060405161034c8152f35b346108a25760403660031901126108a257610e4961131c565b602435610e546119c8565b61034c610e6382600c546115da565b11610e8b575f5b818110610e7357005b600190610e85600c54610c76816115e7565b01610e6a565b60405162461bcd60e51b815260206004820152601260248201527145786365656473206d617820737570706c7960701b6044820152606490fd5b346108a25760403660031901126108a2576024356004355f52600b60205260405f2060405190610ef4826113b8565b546001600160a01b03811680835260a09190911c602083015215610f51575b6001600160601b0360208201511691828102928184041490151715610cc65751604080516001600160a01b0390921682526127109092046020820152f35b50604051610f5e816113b8565b600a546001600160a01b038116825260a01c6020820152610f13565b346108a2576108a0610f8b36611348565b91610f996107898433611737565b6117f0565b346108a2575f3660031901126108a2576040805163657711f560e11b815260016020820152f35b346108a2575f3660031901126108a2576020610d8d61153a565b346108a25760403660031901126108a257610ff861131c565b6024359061100582611641565b6001600160a01b039182169181168281146110fc5733149081156110ea575b501561107f575f82815260046020526040902080546001600160a01b031916821790556001600160a01b0361105883611641565b167f8c5be1e5ebec7d5bd14f71427d1e84f3dd0314c0f7b2291e5b200ac8c7c3b9255f80a4005b60405162461bcd60e51b815260206004820152603d60248201527f4552433732313a20617070726f76652063616c6c6572206973206e6f7420746f60448201527f6b656e206f776e6572206f7220617070726f76656420666f7220616c6c0000006064820152608490fd5b6110f6915033906116d0565b83611024565b60405162461bcd60e51b815260206004820152602160248201527f4552433732313a20617070726f76616c20746f2063757272656e74206f776e656044820152603960f91b6064820152608490fd5b346108a25760203660031901126108a2576020610d8d6004356114fe565b346108a2575f3660031901126108a2576040515f60065461118981611426565b8084529060018116908115610a9d57506001146111b05761056983610555818503826113e8565b60065f9081527ff652222313e28459528d920b65115c16c04f3efc82aaedc97be59f3f377c0d3f939250905b8082106111f457509091508101602001610555610a2f565b9192600181602092548385880101520191019092916111dc565b346108a25760203660031901126108a25760043563ffffffff60e01b81168091036108a257602090632b435fdb60e21b811480156112bc575b8015611285575b80918115611263575b50506040519015158152f35b63152a902d60e11b149150811561127d575b508280611257565b905082611275565b506380ac58cd60e01b811480156112ac575b8061124e57506301ffc9a760e01b811461124e565b50635b5e139f60e01b8114611297565b5063503e914d60e11b8114611247565b346108a2575f3660031901126108a2578073721c008fdff27bf06e7e123956e2fe03b63342e360209252f35b805180835260209291819084018484015e5f828201840152601f01601f1916010190565b600435906001600160a01b03821682036108a257565b602435906001600160a01b03821682036108a257565b60609060031901126108a2576004356001600160a01b03811681036108a257906024356001600160a01b03811681036108a2579060443590565b346108a2575f3660031901126108a257602060405160d28152f35b346108a2575f3660031901126108a257602060405160148152f35b6040810190811067ffffffffffffffff8211176113d457604052565b634e487b7160e01b5f52604160045260245ffd5b90601f8019910116810190811067ffffffffffffffff8211176113d457604052565b67ffffffffffffffff81116113d457601f01601f191660200190565b90600182811c92168015611454575b602083101461144057565b634e487b7160e01b5f52602260045260245ffd5b91607f1691611435565b9060405191825f82549261147184611426565b80845293600181169081156114dc5750600114611498575b50611496925003836113e8565b565b90505f9291925260205f20905f915b8183106114c0575050906020611496928201015f611489565b60209193508060019154838589010152019101909184926114a7565b90506020925061149694915060ff191682840152151560051b8201015f611489565b5f81815260026020526040902054611520906001600160a01b031615156115f5565b5f908152600460205260409020546001600160a01b031690565b6009546001600160a01b031690811561154f57565b60ff60085460a01c161561155f57565b73721c008fdff27bf06e7e123956e2fe03b63342e39150565b1561157f57565b60405162461bcd60e51b815260206004820152602d60248201527f4552433732313a2063616c6c6572206973206e6f7420746f6b656e206f776e6560448201526c1c881bdc88185c1c1c9bdd9959609a1b6064820152608490fd5b91908201809211610cc657565b5f198114610cc65760010190565b156115fc57565b60405162461bcd60e51b815260206004820152601860248201527f4552433732313a20696e76616c696420746f6b656e20494400000000000000006044820152606490fd5b5f908152600260205260409020546001600160a01b03166116638115156115f5565b90565b5f929181549161167583611426565b92600181169081156116bd575060011461168e57505050565b90919293505f5260205f205f905b8382106116a95750500190565b60018160209254848601520191019061169c565b60ff191683525050811515909102019150565b6001600160a01b039081165f9081526005602090815260408083209385168352929052205460ff16919082156117035750565b60ff60095460a01c166117135750565b9091506001600160a01b0361172661153a565b6001600160a01b0390921691161490565b61174082611641565b6001600160a01b03828116908216811493909290918415611783575b5050821561176957505090565b9091506001600160a01b039061177e906114fe565b161490565b61178e9294506116d0565b915f8061175c565b1561179d57565b60405162461bcd60e51b815260206004820152602560248201527f4552433732313a207472616e736665722066726f6d20696e636f72726563742060448201526437bbb732b960d91b6064820152608490fd5b6117f983611641565b6001600160a01b038281169161181191168214611796565b6001600160a01b03831691821561197757811593859392915f5b6001811061191c575061185491508290506001600160a01b0361184d86611641565b1614611796565b825f52600460205260405f206001600160601b0360a01b8154169055805f52600360205260405f205f198154019055815f52600360205260405f2060018154019055825f52600260205260405f20826001600160601b0360a01b8254161790557fddf252ad1be2c89b69c2b068fc378daa952ba7f163c4a11628f55a4df523b3ef5f80a45f5b600181106118e757505050565b6118f181846115da565b508180611915575b1561190d57635cbd944160e01b5f5260045ffd5b6001016118da565b505f6118f9565b90919293948161192b916115da565b908680611970575b1561194757635cbd944160e01b5f5260045ffd5b600191871561195e575b500191908694939261182b565b61196a90858533613287565b5f611951565b505f611933565b60405162461bcd60e51b8152602060048201526024808201527f4552433732313a207472616e7366657220746f20746865207a65726f206164646044820152637265737360e01b6064820152608490fd5b6008546001600160a01b031633036119dc57565b606460405162461bcd60e51b815260206004820152602060248201527f4f776e61626c653a2063616c6c6572206973206e6f7420746865206f776e65726044820152fd5b60405191906020611a3181856113e8565b5f84526001600160a01b03821680159182611b5e575f8581526002602052604090205485929190611a6e906001600160a01b031615155b156131b5565b5f5b60018110611b2f5750600290611a9c611a68855f52600260205260018060a01b0360405f205416151590565b825f526003815260405f2060018154019055835f525260405f20816001600160601b0360a01b8254161790555f7fddf252ad1be2c89b69c2b068fc378daa952ba7f163c4a11628f55a4df523b3ef8180a45f5b60018110611b075750509161079e91611496936127f1565b611b1181856115da565b508115611b2757635cbd944160e01b5f5260045ffd5b600101611aef565b90919281611b3c916115da565b508315611b5257635cbd944160e01b5f5260045ffd5b60010190859291611a70565b6064906040519062461bcd60e51b825280600483015260248201527f4552433732313a206d696e7420746f20746865207a65726f20616464726573736044820152fd5b60809060208152603260208201527f4552433732313a207472616e7366657220746f206e6f6e20455243373231526560408201527131b2b4bb32b91034b6b83632b6b2b73a32b960711b60608201520190565b15611bfb57565b60405162461bcd60e51b815280611c1460048201611ba1565b0390fd5b610348811015611f0d57611c2b8161310c565b906060915f5b60148110611d7757505050611c446125c7565b611c4c6125c7565b91611c556125c7565b611c5d6125c7565b9060405194859460208601611cae90602f907f3c73766720786d6c6e733d22687474703a2f2f7777772e77332e6f72672f323081526e181817b9bb3391103bb4b23a341e9160891b60208201520190565b81516020819301825e016911103432b4b3b43a1e9160b11b815281516020819301600a83015e016e011103b34b2bba137bc1e911810181608d1b600a82015281516020819301601983015e01600a01600f8101600160fd1b905281516020819301601083015e01600f01600181017f222073686170652d72656e646572696e673d2263726973704564676573223e00905281516020819301602083015e01600101601f8101651e17b9bb339f60d11b905203601f016019198101825260060161166390826113e8565b5f5b60148110611d8a5750600101611c31565b93601482029082820460141483151715610cc657611dc685611dc1611db8611db28a876115da565b8861317d565b5160f81c6131a2565b613201565b6014870287810460141488151715610cc657611de1906126af565b92611deb906126af565b611df3612634565b611dfb612634565b9160405195858796516020819201602089015e8601681e3932b1ba103c1e9160b91b602082015281516020819301602983015e016020016411103c9e9160d91b600982015281516020819301600e83015e016009016811103bb4b23a341e9160b91b600582015281516020819301600e83015e016005016911103432b4b3b43a1e9160b11b600982015281516020819301601383015e016009016711103334b6361e9160c11b600a82015281516020819301601283015e01600a01600881017f22207374726f6b653d222363636363636322207374726f6b652d77696474683d9052661118171a91179f60c91b602882015203600801600781018252602701611f0490826113e8565b93600101611d79565b611f169061310c565b6060905f5b601481106120b9575050611f2d6125c7565b611f356125c7565b91611f3e6125c7565b611f466125c7565b611f4e6125c7565b90611f576125c7565b9260405196879660208801611fa890602f907f3c73766720786d6c6e733d22687474703a2f2f7777772e77332e6f72672f323081526e181817b9bb3391103bb4b23a341e9160891b60208201520190565b81516020819301825e016911103432b4b3b43a1e9160b11b815281516020819301600a83015e016e011103b34b2bba137bc1e911810181608d1b600a82015281516020819301601983015e01600a01600f8101600160fd1b905281516020819301601083015e01600f0161111f60f11b60018201526c1e3932b1ba103bb4b23a341e9160991b600382015281516020819301601083015e016001016911103432b4b3b43a1e9160b11b600f82015281516020819301601983015e01600f017111103334b6361e9111b3333333333311179f60711b600a82015281516020819301601c83015e01600a0160128101651e17b9bb339f60d11b9052036012016019198101825260060161166390826113e8565b5f5b601481106120cc5750600101611f1b565b92601482029082820460141483151715610cc6576120f6611db86120f087856115da565b8661317d565b91601486029286840460141487151715610cc657600a8401809411610cc657600f8201809211610cc657604d6020936005856001976009826122459860ff6007991680155f1461224c5750818061216a6104176040612157815191826113e8565b60018152600360fc1b84820152976126af565b926040519d8a8f9b5191829101848d015e8a0190681e3a32bc3a103c1e9160b91b83830152805192839101602983015e0101906411103c9e9160d91b84830152805192839101600e83015e0101907f2220666f6e742d66616d696c793d226d6f6e6f73706163652220666f6e742d73848301527f697a653d223134222066696c6c3d22233030303030302220746578742d616e6360258301526c3437b91e9136b4b2323632911f60991b6045830152805192839101605283015e0101661e17ba32bc3a1f60c91b8382015203016018198101845201826113e8565b93016120bb565b8c0361227c57818061216a6104176040612268815191826113e8565b60018152603160f81b848201525b976126af565b818061216a6104176040612292815191826113e8565b60018152601960f91b84820152612276565b906122ae8261140a565b6122bb60405191826113e8565b82815280926122cc601f199161140a565b0190602036910137565b805115612404576040516122eb6060826113e8565b604081527f4142434445464748494a4b4c4d4e4f505152535455565758595a61626364656660208201527f6768696a6b6c6d6e6f707172737475767778797a303132333435363738392b2f6040820152815160028101809111610cc657600390046001600160fe1b0381168103610cc6576123689060021b6122a4565b916020830191819082518301915b8281106123b4575050506003905106806001146123a257600214612398575090565b603d905f19015390565b50603d90815f19820153600119015390565b60036004919592939501916001603f845182828260121c16880101518453828282600c1c16880101518385015382828260061c168801015160028501531685010151600382015301939190612376565b506040516124136020826113e8565b5f815290565b5f9060d25f9106926007840693600660078204065f5f5b60078110612497575b505050602a60059104065f905f5b6007811061245457505050565b868114158061248d575b61246b575b600101612447565b918181146124865761247e6001916115e7565b929050612463565b5090925050565b508581141561245e565b8781036124a7575b600101612430565b908281146124c2576124ba6001916115e7565b91905061249f565b509450602a905060055f612439565b604051906124e06040836113e8565b600682526529b2b2b5b2b960d11b6020830152565b604051906125046040836113e8565b6007825266213ab4b63232b960c91b6020830152565b604051906125296040836113e8565b60068252652632b0b232b960d11b6020830152565b6040519061254d6040836113e8565b60048252635361676560e01b6020830152565b6103488110156125a55760d29004801561259c57600181146125935760021461258b5761166361253e565b61166361251a565b506116636124f5565b506116636124d1565b610348811461259c5761034981146125935761034a1461258b5761166361253e565b6101906125d4600361140a565b906125e260405192836113e8565b60038252601f196125f3600361140a565b01366020840137600a602383015b5f1901916f181899199a1a9b1b9c1cb0b131b232b360811b8282061a835304801561262f57600a9091612601565b505090565b60016014612642600261140a565b9161265060405193846113e8565b60028352601f19612661600261140a565b0136602085013760228301815b612679575b50505090565b5f190191600a906f181899199a1a9b1b9c1cb0b131b232b360811b8282061a8453049081156126aa5790918161266e565b612673565b805f9172184f03e93ff9f4daa797ed6e38ed64bf6a1f0160401b8210156127ce575b806d04ee2d6d415b85acef8100000000600a9210156127b3575b662386f26fc1000081101561279f575b6305f5e10081101561278e575b61271081101561277f575b6064811015612771575b1015612766575b600a6021612734600185016122a4565b938401015f1901916f181899199a1a9b1b9c1cb0b131b232b360811b8282061a835304801561262f57600a9091612601565b600190910190612724565b60646002910493019261271d565b61271060049104930192612713565b6305f5e10060089104930192612708565b662386f26fc10000601091049301926126fb565b6d04ee2d6d415b85acef8100000000602091049301926126eb565b506040915072184f03e93ff9f4daa797ed6e38ed64bf6a1f0160401b81046126d1565b91823b1561290057612836926020925f604051809681958294630a85bd0160e11b845233600485015284602485015260448401526080606484015260848301906112f8565b03926001600160a01b03165af15f91816128bb575b506128a5573d1561289e573d6128608161140a565b9061286e60405192836113e8565b81523d5f602083013e5b805190816128995760405162461bcd60e51b815280611c1460048201611ba1565b602001fd5b6060612878565b6001600160e01b031916630a85bd0160e11b1490565b9091506020813d6020116128f8575b816128d7602093836113e8565b810103126108a257516001600160e01b0319811681036108a257905f61284b565b3d91506128ca565b505050600190565b919290803b1561295757612836935f60209460405196879586948593630a85bd0160e11b855233600486015260018060a01b0316602485015260448401526080606484015260848301906112f8565b50505050600190565b604051906129706101c0836113e8565b61019082526f0303030303030303030303030303030360841b6101a0837f303030303030303030303030303030303030303030303030303030303030303060208201527f303030303030303030303030303030303130303130303030303030303030313060408201527f303030303031313030303030303130303030313031303032323131323230303160608201527f303130303030313131303031313131313130303131313030303031313131313160808201527f313131313131313131313030303030303030313131313131313130303030303060a08201527f303030303030303031313131303030303030303030303030303030303131313160c08201527f303030303030303030303030303030303131313130303030303030303030303060e08201527f30303030313131313030303030303030303030303030303031313131303030306101008201525f5160206133265f395f51905f526101208201527f31313131313030303030303030303030303030313131313131303030303030306101408201527f30303030303030303131313130303030303030303030303030303030303131306101608201527f30303030303030303030303030303030303030303030303030303030303030306101808201520152565b60405190612b5b6101c0836113e8565b61019082526f0303030303030303030303030303030360841b6101a0837f303030303030303030303030303030303030303030303030303031313030303060208201527f313130303030303030313030303030303130303130303030303031303031313060408201527f303030303031313030303030303131303031313031303032323131323230303160608201527f303131303031313131303031313131313130303131313130303131313131313160808201527f313131313131313131313130303030303030313131313131313130303030303060a08201527f303030303030313131313131313130303030303030303030303030303131313160c08201527f303030303030303030303030303030303131313130303030303030303030303060e08201527f30303030313131313030303030303030303030303030303031313131303030306101008201525f5160206133265f395f51905f526101208201527f31313131313030303030303030303030303031313131313131313030303030306101408201527f30303030303030313131313131303030303030303030303030303030313131316101608201527f30303030303030303030303030303030303131303030303030303030303030306101808201520152565b60405190612d466101c0836113e8565b61019082526f0303030303030303030303030303030360841b6101a0837f303030303030303030303030303030303030303030303030313131313030303060208201527f313131313030303030313030303030303130303130303030303031303031313060408201527f303030303031313030303030303131303031313031303032323131323230303160608201527f303131303031313131303031313131313130303131313130303131313131313160808201527f313131313131313131313130303031313130313131313131313130313131303060a08201527f303030303030313131313131313130303030303030303030303030303131313160c08201527f303030303030303030303030303030313131313131303030303030303030303060e08201527f30303030313131313030303030303030303030303030303131313131313030306101008201525f5160206133265f395f51905f526101208201527f31313131313030303030303030303030303031313131313131313030303030306101408201527f30303030303030313131313131303030303030303030303030303030313131316101608201527f30303030303030303030303030303030303131303030303030303030303030306101808201520152565b60405190612f316101c0836113e8565b61019082526f0303030303030303030303030303030360841b6101a0837f303030303030303030303030303030303030303030313131313131313030303060208201527f313131313131313030303030303030303130303130303030303030303030313060408201527f303030303031313030303030303130303030313031303032323131323230303160608201527f303130303030313131303032323131323230303131313030303031313131313160808201527f313131313131313131313030303031313130313131313131313130313131303060a08201527f303030303030313131313131313130303030303030303030303030303131313160c08201527f303030303030303030303030303030313131313131303030303030303030303060e08201527f30303030313131313030303030303030303030303030303131313131313030306101008201525f5160206133265f395f51905f526101208201527f31313131313030303030303030303030303031313131313131313030303030306101408201527f30303030303030313131313131303030303030303030303030303030313131316101608201527f30303030303030303030303030303030303131303030303030303030303030306101808201520152565b61034881146131625761034981146131595761034a81146131745761034b811461316b5760d29004801561316257600181146131595760021461315157611663612f21565b611663612d36565b50611663612b4b565b50611663612960565b50611663612f21565b50611663612d36565b90815181101561318e570160200190565b634e487b7160e01b5f52603260045260245ffd5b60ff602f199116019060ff8211610cc657565b156131bc57565b60405162461bcd60e51b815260206004820152601c60248201527f4552433732313a20746f6b656e20616c7265616479206d696e746564000000006044820152606490fd5b9061320d60ff91612419565b929091931690811561326f5760018214613256575060021461323f5750600781101561318e5761166390600d0161145e565b9050600781101561318e5761166390600d0161145e565b92505050600781101561318e5761166390600d0161145e565b505050600781101561318e5761166390600d0161145e565b919261329161153a565b6001600160a01b031692836132a8575b5050505050565b8333146132a157833b156108a25760405163657711f560e11b81526001600160a01b0391821660048201529281166024840152909316604482015260648101929092525f90829060849082905afa801561331a5761330a575b808080806132a1565b5f613314916113e8565b5f613301565b6040513d5f823e3d90fdfe3030303030303030303030303131313130303030303030303030303030303031a2646970667358221220bd32a30ef201238beecfa9d8ae9d48eed9605948305d0bc9e79ab7e029cf995664736f6c634300081c0033","linkReferences":{}},"methodIdentifiers":{"BATCH_SIZE()":"49faa4d4","DEFAULT_TRANSFER_VALIDATOR()":"01463546","GRID_SIZE()":"7fc4eda8","MAX_SUPPLY()":"32cb6b0c","PIXEL()":"b92f61e0","PREMINT_BATCH_SIZE()":"f5763da3","ROYALTY_BPS()":"49c657db","approve(address,uint256)":"095ea7b3","autoApproveTransfersFromValidator()":"6221d13c","balanceOf(address)":"70a08231","getApproved(uint256)":"081812fc","getTraits(uint256)":"e1dc0761","getTransferValidationFunction()":"0d705df6","getTransferValidator()":"098144d4","isApprovedForAll(address,address)":"e985e9c5","name()":"06fdde03","owner()":"8da5cb5b","ownerOf(uint256)":"6352211e","premint(address,uint256)":"2b5e3e26","premintBatch(address)":"70bce82d","renounceOwnership()":"715018a6","royaltyInfo(uint256,uint256)":"2a55205a","safeTransferFrom(address,address,uint256)":"42842e0e","safeTransferFrom(address,address,uint256,bytes)":"b88d4fde","setApprovalForAll(address,bool)":"a22cb465","setAutomaticApprovalOfTransfersFromValidator(bool)":"9e05d240","setRoyaltyReceiver(address)":"8dc251e3","setTransferValidator(address)":"a9fc664e","supportsInterface(bytes4)":"01ffc9a7","symbol()":"95d89b41","tokenURI(uint256)":"c87b56dd","transferFrom(address,address,uint256)":"23b872dd","transferOwnership(address)":"f2fde38b"},"id":51}