{"abi":[{"type":"constructor","inputs":[],"stateMutability":"nonpayable"},{"type":"function","name":"GRID_SIZE","inputs":[],"outputs":[{"name":"","type":"uint256","internalType":"uint256"}],"stateMutability":"view"},{"type":"function","name":"MAX_SUPPLY","inputs":[],"outputs":[{"name":"","type":"uint256","internalType":"uint256"}],"stateMutability":"view"},{"type":"function","name":"PIXEL","inputs":[],"outputs":[{"name":"","type":"uint256","internalType":"uint256"}],"stateMutability":"view"},{"type":"function","name":"PREMINT_BATCH_SIZE","inputs":[],"outputs":[{"name":"","type":"uint256","internalType":"uint256"}],"stateMutability":"view"},{"type":"function","name":"ROYALTY_BPS","inputs":[],"outputs":[{"name":"","type":"uint256","internalType":"uint256"}],"stateMutability":"view"},{"type":"function","name":"approve","inputs":[{"name":"to","type":"address","internalType":"address"},{"name":"tokenId","type":"uint256","internalType":"uint256"}],"outputs":[],"stateMutability":"nonpayable"},{"type":"function","name":"balanceOf","inputs":[{"name":"owner","type":"address","internalType":"address"}],"outputs":[{"name":"","type":"uint256","internalType":"uint256"}],"stateMutability":"view"},{"type":"function","name":"getApproved","inputs":[{"name":"tokenId","type":"uint256","internalType":"uint256"}],"outputs":[{"name":"","type":"address","internalType":"address"}],"stateMutability":"view"},{"type":"function","name":"getTraits","inputs":[{"name":"tokenId","type":"uint256","internalType":"uint256"}],"outputs":[{"name":"bgIdx","type":"uint256","internalType":"uint256"},{"name":"bodyIdx","type":"uint256","internalType":"uint256"},{"name":"eyeIdx","type":"uint256","internalType":"uint256"}],"stateMutability":"pure"},{"type":"function","name":"isApprovedForAll","inputs":[{"name":"owner","type":"address","internalType":"address"},{"name":"operator","type":"address","internalType":"address"}],"outputs":[{"name":"","type":"bool","internalType":"bool"}],"stateMutability":"view"},{"type":"function","name":"name","inputs":[],"outputs":[{"name":"","type":"string","internalType":"string"}],"stateMutability":"view"},{"type":"function","name":"owner","inputs":[],"outputs":[{"name":"","type":"address","internalType":"address"}],"stateMutability":"view"},{"type":"function","name":"ownerOf","inputs":[{"name":"tokenId","type":"uint256","internalType":"uint256"}],"outputs":[{"name":"","type":"address","internalType":"address"}],"stateMutability":"view"},{"type":"function","name":"premint","inputs":[{"name":"to","type":"address","internalType":"address"},{"name":"quantity","type":"uint256","internalType":"uint256"}],"outputs":[],"stateMutability":"nonpayable"},{"type":"function","name":"premintBatch","inputs":[{"name":"to","type":"address","internalType":"address"}],"outputs":[],"stateMutability":"nonpayable"},{"type":"function","name":"renounceOwnership","inputs":[],"outputs":[],"stateMutability":"nonpayable"},{"type":"function","name":"royaltyInfo","inputs":[{"name":"tokenId","type":"uint256","internalType":"uint256"},{"name":"salePrice","type":"uint256","internalType":"uint256"}],"outputs":[{"name":"receiver","type":"address","internalType":"address"},{"name":"amount","type":"uint256","internalType":"uint256"}],"stateMutability":"view"},{"type":"function","name":"safeTransferFrom","inputs":[{"name":"from","type":"address","internalType":"address"},{"name":"to","type":"address","internalType":"address"},{"name":"tokenId","type":"uint256","internalType":"uint256"}],"outputs":[],"stateMutability":"nonpayable"},{"type":"function","name":"safeTransferFrom","inputs":[{"name":"from","type":"address","internalType":"address"},{"name":"to","type":"address","internalType":"address"},{"name":"tokenId","type":"uint256","internalType":"uint256"},{"name":"data","type":"bytes","internalType":"bytes"}],"outputs":[],"stateMutability":"nonpayable"},{"type":"function","name":"setApprovalForAll","inputs":[{"name":"operator","type":"address","internalType":"address"},{"name":"approved","type":"bool","internalType":"bool"}],"outputs":[],"stateMutability":"nonpayable"},{"type":"function","name":"setRoyaltyReceiver","inputs":[{"name":"receiver","type":"address","internalType":"address"}],"outputs":[],"stateMutability":"nonpayable"},{"type":"function","name":"supportsInterface","inputs":[{"name":"interfaceId","type":"bytes4","internalType":"bytes4"}],"outputs":[{"name":"","type":"bool","internalType":"bool"}],"stateMutability":"view"},{"type":"function","name":"symbol","inputs":[],"outputs":[{"name":"","type":"string","internalType":"string"}],"stateMutability":"view"},{"type":"function","name":"tokenURI","inputs":[{"name":"tokenId","type":"uint256","internalType":"uint256"}],"outputs":[{"name":"","type":"string","internalType":"string"}],"stateMutability":"view"},{"type":"function","name":"transferFrom","inputs":[{"name":"from","type":"address","internalType":"address"},{"name":"to","type":"address","internalType":"address"},{"name":"tokenId","type":"uint256","internalType":"uint256"}],"outputs":[],"stateMutability":"nonpayable"},{"type":"function","name":"transferOwnership","inputs":[{"name":"newOwner","type":"address","internalType":"address"}],"outputs":[],"stateMutability":"nonpayable"},{"type":"event","name":"Approval","inputs":[{"name":"owner","type":"address","indexed":true,"internalType":"address"},{"name":"approved","type":"address","indexed":true,"internalType":"address"},{"name":"tokenId","type":"uint256","indexed":true,"internalType":"uint256"}],"anonymous":false},{"type":"event","name":"ApprovalForAll","inputs":[{"name":"owner","type":"address","indexed":true,"internalType":"address"},{"name":"operator","type":"address","indexed":true,"internalType":"address"},{"name":"approved","type":"bool","indexed":false,"internalType":"bool"}],"anonymous":false},{"type":"event","name":"OwnershipTransferred","inputs":[{"name":"previousOwner","type":"address","indexed":true,"internalType":"address"},{"name":"newOwner","type":"address","indexed":true,"internalType":"address"}],"anonymous":false},{"type":"event","name":"Transfer","inputs":[{"name":"from","type":"address","indexed":true,"internalType":"address"},{"name":"to","type":"address","indexed":true,"internalType":"address"},{"name":"tokenId","type":"uint256","indexed":true,"internalType":"uint256"}],"anonymous":false},{"type":"error","name":"ERC2981InvalidDefaultRoyalty","inputs":[{"name":"numerator","type":"uint256","internalType":"uint256"},{"name":"denominator","type":"uint256","internalType":"uint256"}]},{"type":"error","name":"ERC2981InvalidDefaultRoyaltyReceiver","inputs":[{"name":"receiver","type":"address","internalType":"address"}]},{"type":"error","name":"ERC2981InvalidTokenRoyalty","inputs":[{"name":"tokenId","type":"uint256","internalType":"uint256"},{"name":"numerator","type":"uint256","internalType":"uint256"},{"name":"denominator","type":"uint256","internalType":"uint256"}]},{"type":"error","name":"ERC2981InvalidTokenRoyaltyReceiver","inputs":[{"name":"tokenId","type":"uint256","internalType":"uint256"},{"name":"receiver","type":"address","internalType":"address"}]},{"type":"error","name":"ERC721IncorrectOwner","inputs":[{"name":"sender","type":"address","internalType":"address"},{"name":"tokenId","type":"uint256","internalType":"uint256"},{"name":"owner","type":"address","internalType":"address"}]},{"type":"error","name":"ERC721InsufficientApproval","inputs":[{"name":"operator","type":"address","internalType":"address"},{"name":"tokenId","type":"uint256","internalType":"uint256"}]},{"type":"error","name":"ERC721InvalidApprover","inputs":[{"name":"approver","type":"address","internalType":"address"}]},{"type":"error","name":"ERC721InvalidOperator","inputs":[{"name":"operator","type":"address","internalType":"address"}]},{"type":"error","name":"ERC721InvalidOwner","inputs":[{"name":"owner","type":"address","internalType":"address"}]},{"type":"error","name":"ERC721InvalidReceiver","inputs":[{"name":"receiver","type":"address","internalType":"address"}]},{"type":"error","name":"ERC721InvalidSender","inputs":[{"name":"sender","type":"address","internalType":"address"}]},{"type":"error","name":"ERC721NonexistentToken","inputs":[{"name":"tokenId","type":"uint256","internalType":"uint256"}]},{"type":"error","name":"OwnableInvalidOwner","inputs":[{"name":"owner","type":"address","internalType":"address"}]},{"type":"error","name":"OwnableUnauthorizedAccount","inputs":[{"name":"account","type":"address","internalType":"address"}]}],"bytecode":{"object":"0x6007610360818152660233030303030360cc1b6103805260809081526103a08281526611a3232323232360c91b6103c05260a0526103e08281526611a2199923192360c91b6104005260c052610420828152660234646364130360cc1b6104405260e052610460828152660234646443130360cc1b61048052610100526104a0828152660233941464630360cc1b6104c052610120526104e08281526608cc0c108e0e4d60ca1b6105005261014052610520828152662330423544314560c81b610540526101605261056082815266119818229aa32360c91b61058052610180526105a0828152662334324135463560c81b6105c0526101a0526105e0828152660233030333341360cc1b610600526101c0526106208281526611992298181b1b60c91b610640526101e0526106608281526608cdd0ccd0515160ca1b61068052610200526106a08281526611a32319231c9960c91b6106c052610220526106e0828152660234646384138360cc1b610700526102405261072082815266119b2218a118a160c91b6107405261026052610760828152660233541303030360cc1b61078052610280526107a0828152660234334363231360cc1b6107c0526102a0526107e0828152660233741384230360cc1b610800526102c05261082082815266119b211ba19c2360c91b610840526102e05261086082815266046646c666466760cb1b61088052610300526108a0828152662346334532423360c81b6108c052610320526109206040526108e0918252662330304646394360c81b610900526103409190915261025590600a906017610764565b50604080516103208101825260056102e0820181815264426c61636b60d81b61030084015282528251808401845290815264576869746560d81b6020828101919091528083019190915282518084018452600a8082526914dd1c9bdb99c814995960b21b82840152838501919091528351808501855260068152654f72616e676560d01b81840152606084015283518085018552600b8082526a476f6c642059656c6c6f7760a81b828501526080850191909152845180860186526009808252684e656f6e204c696d6560b81b8286015260a086019190915285518087018752838152692a32b0b61023b932b2b760b11b8186015260c08601528551808701875260118152702230b935902337b932b9ba1023b932b2b760791b8186015260e086015285518087018752600481526321bcb0b760e11b8186015261010086015285518087018752600880825267536b7920426c756560c01b828701526101208701919091528651808801885284815269526f79616c20426c756560b01b81870152610140870152865180880188528381526a4465657020496e6469676f60a81b8187015261016087015286518088018852600c8082526b566976696420507572706c6560a01b828801526101808801919091528751808901895291825267486f742050696e6b60c01b828701526101a08701919091528651808801885293845269436f72616c2050696e6b60b01b848601526101c086019390935285518087018752600e81526d11185c9ac8109c9a58dac814995960921b818601526101e0860152855180870187529283526b213637b7b21026b0b937b7b760a11b8385015261020085019290925284518086018652601280825271213ab9373a1027b930b733b297a13937bbb760711b82860152610220860191909152855180870187529182526a27b634bb329023b932b2b760a91b8285015261024085019190915284518086018652600f81526e537465656c20426c75652d4772617960881b81850152610260850152845180860186529081527143686172636f616c20426c75652d4772617960701b81840152610280840152835180850185528181526814185b194814d85b9960ba1b818401526102a0840152835180850190945283526826b4b73a102732b7b760b91b908301526102c08101919091526105b8906021906017610764565b503480156105c4575f5ffd5b503360405180604001604052806009815260200168436c617750756e6b7360b81b81525060405180604001604052806009815260200168434c415750554e4b5360b81b815250816002908161061991906108af565b50600361062682826108af565b5050506001600160a01b03811661065757604051631e4fbdf760e01b81525f60048201526024015b60405180910390fd5b61066081610672565b5061066d336101f46106c3565b610969565b600880546001600160a01b038381166001600160a01b0319831681179093556040519116919082907f8be0079c531659141344cd1fd0a4f28419497f9722a3daafe3b4186f6b6457e0905f90a35050565b6127106001600160601b03821681101561070257604051636f483d0960e01b81526001600160601b03831660048201526024810182905260440161064e565b6001600160a01b03831661072b57604051635b6cc80560e11b81525f600482015260240161064e565b50604080518082019091526001600160a01b039092168083526001600160601b039091166020909201829052600160a01b909102175f55565b826017810192821561079d579160200282015b8281111561079d578251829061078d90826108af565b5091602001919060010190610777565b506107a99291506107ad565b5090565b808211156107a9575f6107c082826107c9565b506001016107ad565b5080546107d59061082b565b5f825580601f106107e4575050565b601f0160209004905f5260205f20908101906108009190610803565b50565b5b808211156107a9575f8155600101610804565b634e487b7160e01b5f52604160045260245ffd5b600181811c9082168061083f57607f821691505b60208210810361085d57634e487b7160e01b5f52602260045260245ffd5b50919050565b601f8211156108aa57805f5260205f20601f840160051c810160208510156108885750805b601f840160051c820191505b818110156108a7575f8155600101610894565b50505b505050565b81516001600160401b038111156108c8576108c8610817565b6108dc816108d6845461082b565b84610863565b6020601f82116001811461090e575f83156108f75750848201515b5f19600385901b1c1916600184901b1784556108a7565b5f84815260208120601f198516915b8281101561093d578785015182556020948501946001909201910161091d565b508482101561095a57868401515f19600387901b60f8161c191681555b50505050600190811b01905550565b6121a2806109765f395ff3fe608060405234801561000f575f5ffd5b5060043610610187575f3560e01c8063715018a6116100d9578063b88d4fde11610093578063e1dc07611161006e578063e1dc076114610341578063e985e9c51461036f578063f2fde38b14610382578063f5763da314610395575f5ffd5b8063b88d4fde1461031b578063b92f61e0146102d4578063c87b56dd1461032e575f5ffd5b8063715018a6146102cc5780637fc4eda8146102d45780638da5cb5b146102dc5780638dc251e3146102ed57806395d89b4114610300578063a22cb46514610308575f5ffd5b80632b5e3e261161014457806349c657db1161011f57806349c657db1461028a5780636352211e1461029357806370a08231146102a657806370bce82d146102b9575f5ffd5b80632b5e3e261461024d57806332cb6b0c1461026057806342842e0e14610277575f5ffd5b806301ffc9a71461018b57806306fdde03146101b3578063081812fc146101c8578063095ea7b3146101f357806323b872dd146102085780632a55205a1461021b575b5f5ffd5b61019e610199366004611873565b61039e565b60405190151581526020015b60405180910390f35b6101bb6103ae565b6040516101aa91906118c3565b6101db6101d63660046118d5565b61043e565b6040516001600160a01b0390911681526020016101aa565b610206610201366004611907565b610465565b005b61020661021636600461192f565b610474565b61022e610229366004611969565b610502565b604080516001600160a01b0390931683526020830191909152016101aa565b61020661025b366004611907565b610584565b61026961271081565b6040519081526020016101aa565b61020661028536600461192f565b610618565b6102696101f481565b6101db6102a13660046118d5565b610632565b6102696102b4366004611989565b61063c565b6102066102c7366004611989565b610681565b61020661072c565b610269601481565b6008546001600160a01b03166101db565b6102066102fb366004611989565b61073f565b6101bb610756565b6102066103163660046119a2565b610765565b6102066103293660046119ef565b610770565b6101bb61033c3660046118d5565b610788565b61035461034f3660046118d5565b610a03565b604080519384526020840192909252908201526060016101aa565b61019e61037d366004611acc565b610a1c565b610206610390366004611989565b610a49565b6102696107d081565b5f6103a882610a83565b92915050565b6060600280546103bd90611afd565b80601f01602080910402602001604051908101604052809291908181526020018280546103e990611afd565b80156104345780601f1061040b57610100808354040283529160200191610434565b820191905f5260205f20905b81548152906001019060200180831161041757829003601f168201915b5050505050905090565b5f61044882610a8d565b505f828152600660205260409020546001600160a01b03166103a8565b610470828233610ac5565b5050565b6001600160a01b0382166104a257604051633250574960e11b81525f60048201526024015b60405180910390fd5b5f6104ae838333610ad2565b9050836001600160a01b0316816001600160a01b0316146104fc576040516364283d7b60e01b81526001600160a01b0380861660048301526024820184905282166044820152606401610499565b50505050565b5f82815260016020526040812080548291906001600160a01b03811690600160a01b90046001600160601b0316816105545750505f546001600160a01b03811690600160a01b90046001600160601b03165b5f61271061056b6001600160601b03841689611b49565b6105759190611b74565b92989297509195505050505050565b61058c610bc4565b6127108160095461059d9190611b87565b11156105e05760405162461bcd60e51b815260206004820152601260248201527145786365656473206d617820737570706c7960701b6044820152606401610499565b5f5b8181101561061357600980549081905f6105fb83611b9a565b919050555061060a8482610bf1565b506001016105e2565b505050565b61061383838360405180602001604052805f815250610770565b5f6103a882610a8d565b5f6001600160a01b038216610666576040516322718ad960e21b81525f6004820152602401610499565b506001600160a01b03165f9081526005602052604090205490565b610689610bc4565b5f60095461271061069a9190611bb2565b90505f81116106e25760405162461bcd60e51b8152602060048201526014602482015273105b1c9958591e48199d5b1b1e481b5a5b9d195960621b6044820152606401610499565b5f6107d08210156106f357816106f7565b6107d05b90505f5b818110156104fc57600980549081905f61071483611b9a565b91905055506107238582610bf1565b506001016106fb565b610734610bc4565b61073d5f610c0a565b565b610747610bc4565b610753816101f4610c5b565b50565b6060600380546103bd90611afd565b610470338383610cfc565b61077b848484610474565b6104fc3385858585610d9a565b606061079382610a8d565b505f5f5f6107a085610ec2565b9250925092505f602184601781106107ba576107ba611bc5565b0180546107c690611afd565b80601f01602080910402602001604051908101604052809291908181526020018280546107f290611afd565b801561083d5780601f106108145761010080835404028352916020019161083d565b820191905f5260205f20905b81548152906001019060200180831161082057829003601f168201915b505050505090505f6021846017811061085857610858611bc5565b01805461086490611afd565b80601f016020809104026020016040519081016040528092919081815260200182805461089090611afd565b80156108db5780601f106108b2576101008083540402835291602001916108db565b820191905f5260205f20905b8154815290600101906020018083116108be57829003601f168201915b505050505090505f602184601781106108f6576108f6611bc5565b01805461090290611afd565b80601f016020809104026020016040519081016040528092919081815260200182805461092e90611afd565b80156109795780601f1061095057610100808354040283529160200191610979565b820191905f5260205f20905b81548152906001019060200180831161095c57829003601f168201915b505050505090505f61098a89610f93565b90505f61099682611110565b90505f6109d16109a58c61111c565b838888886040516020016109bd959493929190611bf0565b604051602081830303815290604052611110565b9050806040516020016109e49190611d87565b6040516020818303038152906040529950505050505050505050919050565b5f5f5f610a0f84610ec2565b9250925092509193909250565b6001600160a01b039182165f90815260076020908152604080832093909416825291909152205460ff1690565b610a51610bc4565b6001600160a01b038116610a7a57604051631e4fbdf760e01b81525f6004820152602401610499565b61075381610c0a565b5f6103a8826111ac565b5f818152600460205260408120546001600160a01b0316806103a857604051637e27328960e01b815260048101849052602401610499565b61061383838360016111eb565b5f828152600460205260408120546001600160a01b0390811690831615610afe57610afe8184866112ef565b6001600160a01b03811615610b3857610b195f855f5f6111eb565b6001600160a01b0381165f90815260056020526040902080545f190190555b6001600160a01b03851615610b66576001600160a01b0385165f908152600560205260409020805460010190555b5f8481526004602052604080822080546001600160a01b0319166001600160a01b0389811691821790925591518793918516917fddf252ad1be2c89b69c2b068fc378daa952ba7f163c4a11628f55a4df523b3ef91a4949350505050565b6008546001600160a01b0316331461073d5760405163118cdaa760e01b8152336004820152602401610499565b610470828260405180602001604052805f815250611353565b600880546001600160a01b038381166001600160a01b0319831681179093556040519116919082907f8be0079c531659141344cd1fd0a4f28419497f9722a3daafe3b4186f6b6457e0905f90a35050565b6127106001600160601b038216811015610c9a57604051636f483d0960e01b81526001600160601b038316600482015260248101829052604401610499565b6001600160a01b038316610cc357604051635b6cc80560e11b81525f6004820152602401610499565b50604080518082019091526001600160a01b039092168083526001600160601b039091166020909201829052600160a01b909102175f55565b6001600160a01b038216610d2e57604051630b61174360e31b81526001600160a01b0383166004820152602401610499565b6001600160a01b038381165f81815260076020908152604080832094871680845294825291829020805460ff191686151590811790915591519182527f17307eab39ab6107e8899845ad3d59bd9653f200f220920489ca2b5937696c31910160405180910390a3505050565b6001600160a01b0383163b15610ebb57604051630a85bd0160e11b81526001600160a01b0384169063150b7a0290610ddc908890889087908790600401611db8565b6020604051808303815f875af1925050508015610e16575060408051601f3d908101601f19168201909252610e1391810190611df4565b60015b610e7d573d808015610e43576040519150601f19603f3d011682016040523d82523d5f602084013e610e48565b606091505b5080515f03610e7557604051633250574960e11b81526001600160a01b0385166004820152602401610499565b805160208201fd5b6001600160e01b03198116630a85bd0160e11b14610eb957604051633250574960e11b81526001600160a01b0385166004820152602401610499565b505b5050505050565b5f8080610ed0601785611e0f565b92505f6016610ee0601787611b74565b610eea9190611e0f565b90505f805b6017811015610f2457858114610f1c57828203610f0e57809450610f24565b81610f1881611b9a565b9250505b600101610eef565b505f6015610f346101fa89611b74565b610f3e9190611e0f565b5f92509050815b6017811015610f8857868114158015610f5e5750858114155b15610f8057818303610f7257809450610f88565b82610f7c81611b9a565b9350505b600101610f45565b505050509193909250565b60605f604051806101c001604052806101908152602001611fdd610190913990505f610fc0601480611b49565b90505f610fce601480611b49565b905060605f5b60148110156110bc575f5b60148110156110b3575f81610ff5601485611b49565b610fff9190611b87565b90505f603088838151811061101657611016611bc5565b0160200151611028919060f81c611e22565b90505f611035828c61136a565b90505f611043601486611b49565b90505f611051601488611b49565b90508761105d8361111c565b6110668361111c565b611070601461111c565b61107a601461111c565b8760405160200161109096959493929190611e3b565b604051602081830303815290604052975050505050508080600101915050610fdf565b50600101610fd4565b506110c68361111c565b6110cf8361111c565b6110d88561111c565b6110e18561111c565b846040516020016110f6959493929190611eef565b604051602081830303815290604052945050505050919050565b60606103a8825f61150f565b60605f6111288361168e565b60010190505f8167ffffffffffffffff811115611147576111476119db565b6040519080825280601f01601f191660200182016040528015611171576020820181803683370190505b5090508181016020015b5f19016f181899199a1a9b1b9c1cb0b131b232b360811b600a86061a8153600a850494508461117b57509392505050565b5f6001600160e01b031982166380ac58cd60e01b14806111dc57506001600160e01b03198216635b5e139f60e01b145b806103a857506103a882611765565b80806111ff57506001600160a01b03821615155b156112c0575f61120e84610a8d565b90506001600160a01b0383161580159061123a5750826001600160a01b0316816001600160a01b031614155b801561124d575061124b8184610a1c565b155b156112765760405163a9fbf51f60e01b81526001600160a01b0384166004820152602401610499565b81156112be5783856001600160a01b0316826001600160a01b03167f8c5be1e5ebec7d5bd14f71427d1e84f3dd0314c0f7b2291e5b200ac8c7c3b92560405160405180910390a45b505b50505f90815260066020526040902080546001600160a01b0319166001600160a01b0392909216919091179055565b6112fa838383611799565b610613576001600160a01b03831661132857604051637e27328960e01b815260048101829052602401610499565b60405163177e802f60e01b81526001600160a01b038316600482015260248101829052604401610499565b61135d83836117fd565b610613335f858585610d9a565b60605f5f5f61137885610ec2565b9250925092508560ff165f0361142d57600a836017811061139b5761139b611bc5565b0180546113a790611afd565b80601f01602080910402602001604051908101604052809291908181526020018280546113d390611afd565b801561141e5780601f106113f55761010080835404028352916020019161141e565b820191905f5260205f20905b81548152906001019060200180831161140157829003601f168201915b505050505093505050506103a8565b8560ff1660010361144b57600a826017811061139b5761139b611bc5565b8560ff1660020361146957600a816017811061139b5761139b611bc5565b600a836017811061147c5761147c611bc5565b01805461148890611afd565b80601f01602080910402602001604051908101604052809291908181526020018280546114b490611afd565b80156114ff5780601f106114d6576101008083540402835291602001916114ff565b820191905f5260205f20905b8154815290600101906020018083116114e257829003601f168201915b5050505050935050505092915050565b606082515f0361152d575060408051602081019091525f81526103a8565b5f8261155d576003845160026115439190611b87565b61154d9190611b74565b611558906004611b49565b611582565b60038451600461156d9190611b49565b611578906002611b87565b6115829190611b74565b905060405191507f4142434445464748494a4b4c4d4e4f505152535455565758595a616263646566601f5261067083027f6768696a6b6c6d6e6f707172737475767778797a303132333435363738392b2f18603f526020820181810185865187016020810180515f82525b82841015611640576003840193508351603f8160121c16518753600187019650603f81600c1c16518753600187019650603f8160061c16518753600187019650603f8116518753506001860195506115ed565b9052508590506116815760038651066001811461166457600281146116775761167f565b603d6001840353603d600284035361167f565b603d60018403535b505b9183525060405292915050565b5f8072184f03e93ff9f4daa797ed6e38ed64bf6a1f0160401b83106116cc5772184f03e93ff9f4daa797ed6e38ed64bf6a1f0160401b830492506040015b6d04ee2d6d415b85acef810000000083106116f8576d04ee2d6d415b85acef8100000000830492506020015b662386f26fc10000831061171657662386f26fc10000830492506010015b6305f5e100831061172e576305f5e100830492506008015b612710831061174257612710830492506004015b60648310611754576064830492506002015b600a83106103a85760010192915050565b5f6001600160e01b0319821663152a902d60e11b14806103a857506301ffc9a760e01b6001600160e01b03198316146103a8565b5f6001600160a01b038316158015906117f55750826001600160a01b0316846001600160a01b031614806117d257506117d28484610a1c565b806117f557505f828152600660205260409020546001600160a01b038481169116145b949350505050565b6001600160a01b03821661182657604051633250574960e11b81525f6004820152602401610499565b5f61183283835f610ad2565b90506001600160a01b03811615610613576040516339e3563760e11b81525f6004820152602401610499565b6001600160e01b031981168114610753575f5ffd5b5f60208284031215611883575f5ffd5b813561188e8161185e565b9392505050565b5f81518084528060208401602086015e5f602082860101526020601f19601f83011685010191505092915050565b602081525f61188e6020830184611895565b5f602082840312156118e5575f5ffd5b5035919050565b80356001600160a01b0381168114611902575f5ffd5b919050565b5f5f60408385031215611918575f5ffd5b611921836118ec565b946020939093013593505050565b5f5f5f60608486031215611941575f5ffd5b61194a846118ec565b9250611958602085016118ec565b929592945050506040919091013590565b5f5f6040838503121561197a575f5ffd5b50508035926020909101359150565b5f60208284031215611999575f5ffd5b61188e826118ec565b5f5f604083850312156119b3575f5ffd5b6119bc836118ec565b9150602083013580151581146119d0575f5ffd5b809150509250929050565b634e487b7160e01b5f52604160045260245ffd5b5f5f5f5f60808587031215611a02575f5ffd5b611a0b856118ec565b9350611a19602086016118ec565b925060408501359150606085013567ffffffffffffffff811115611a3b575f5ffd5b8501601f81018713611a4b575f5ffd5b803567ffffffffffffffff811115611a6557611a656119db565b604051601f8201601f19908116603f0116810167ffffffffffffffff81118282101715611a9457611a946119db565b604052818152828201602001891015611aab575f5ffd5b816020840160208301375f6020838301015280935050505092959194509250565b5f5f60408385031215611add575f5ffd5b611ae6836118ec565b9150611af4602084016118ec565b90509250929050565b600181811c90821680611b1157607f821691505b602082108103611b2f57634e487b7160e01b5f52602260045260245ffd5b50919050565b634e487b7160e01b5f52601160045260245ffd5b80820281158282048414176103a8576103a8611b35565b634e487b7160e01b5f52601260045260245ffd5b5f82611b8257611b82611b60565b500490565b808201808211156103a8576103a8611b35565b5f60018201611bab57611bab611b35565b5060010190565b818103818111156103a8576103a8611b35565b634e487b7160e01b5f52603260045260245ffd5b5f81518060208401855e5f93019283525090919050565b727b226e616d65223a22436c617750756e6b202360681b81525f611c176013830188611bd9565b7f222c226465736372697074696f6e223a2246756c6c79204f6e636861696e20438152683630bba83ab735971160b91b60208201527f2c22696d616765223a22646174613a696d6167652f7376672b786d6c3b626173602982015263194d8d0b60e21b6049820152611c8c604d820188611bd9565b601160f91b81526e2c2261747472696275746573223a5b60881b60018201527f7b2274726169745f74797065223a224261636b67726f756e64222c2276616c7560108201526332911d1160e11b60308201529050611d7b611d6d611d01611d67611d3e82611d38611d0f8260348a018f611bd9565b61227d60f01b815260020190565b7f2c7b2274726169745f74797065223a22426f6479222c2276616c7565223a22008152601f0190565b8b611bd9565b7f2c7b2274726169745f74797065223a2245796573222c2276616c7565223a22008152601f0190565b87611bd9565b615d7d60f01b815260020190565b98975050505050505050565b7f646174613a6170706c69636174696f6e2f6a736f6e3b6261736536342c00000081525f61188e601d830184611bd9565b6001600160a01b03858116825284166020820152604081018390526080606082018190525f90611dea90830184611895565b9695505050505050565b5f60208284031215611e04575f5ffd5b815161188e8161185e565b5f82611e1d57611e1d611b60565b500690565b60ff82811682821603908111156103a8576103a8611b35565b5f611e468289611bd9565b681e3932b1ba103c1e9160b91b8152611e626009820189611bd9565b6411103c9e9160d91b81529050611e7c6005820188611bd9565b6811103bb4b23a341e9160b91b81529050611e9a6009820187611bd9565b6911103432b4b3b43a1e9160b11b81529050611eb9600a820186611bd9565b6711103334b6361e9160c11b81529050611ed66008820185611bd9565b6211179f60e91b81526003019998505050505050505050565b7f3c73766720786d6c6e733d22687474703a2f2f7777772e77332e6f72672f323081526e181817b9bb3391103bb4b23a341e9160891b60208201525f611f38602f830188611bd9565b6911103432b4b3b43a1e9160b11b8152611f55600a820188611bd9565b6e011103b34b2bba137bc1e911810181608d1b81529050611f79600f820187611bd9565b9050600160fd1b8152611f8f6001820186611bd9565b90507f222073686170652d72656e646572696e673d2263726973704564676573223e008152611fc1601f820185611bd9565b651e17b9bb339f60d11b81526006019897505050505050505056fe30303030303030303030303030303030303030303030303030303030303030303030303030303030303130303030303030303030303030303030313030313130303030303031313030303030303131303031313031303030323131323030303130313130303131313130303131313131313030313131313030313131313131313131313131313131313131303030313131303131313131313131303131313030303030303030313131313131313130303030303030303030303030303131313130303030303030303030303030303030313131313030303030303030303030303030303031313131303030303030303030303030303030303131313130303030303030303030303030303030313131313030303030303030303030303030303131313131313030303030303030303030303031313131313131313030303030303030303030303031313131313130303030303030303030303030303031313131303030303030303030303030303030303031313030303030303030303030303030303030303030303030303030303030a26469706673582212201c1b9c3e0676af9c96d602871207f1ec37c5580430ff78e1ca123ba44223c59564736f6c634300081c0033","linkReferences":{}},"methodIdentifiers":{"GRID_SIZE()":"7fc4eda8","MAX_SUPPLY()":"32cb6b0c","PIXEL()":"b92f61e0","PREMINT_BATCH_SIZE()":"f5763da3","ROYALTY_BPS()":"49c657db","approve(address,uint256)":"095ea7b3","balanceOf(address)":"70a08231","getApproved(uint256)":"081812fc","getTraits(uint256)":"e1dc0761","isApprovedForAll(address,address)":"e985e9c5","name()":"06fdde03","owner()":"8da5cb5b","ownerOf(uint256)":"6352211e","premint(address,uint256)":"2b5e3e26","premintBatch(address)":"70bce82d","renounceOwnership()":"715018a6","royaltyInfo(uint256,uint256)":"2a55205a","safeTransferFrom(address,address,uint256)":"42842e0e","safeTransferFrom(address,address,uint256,bytes)":"b88d4fde","setApprovalForAll(address,bool)":"a22cb465","setRoyaltyReceiver(address)":"8dc251e3","supportsInterface(bytes4)":"01ffc9a7","symbol()":"95d89b41","tokenURI(uint256)":"c87b56dd","transferFrom(address,address,uint256)":"23b872dd","transferOwnership(address)":"f2fde38b"},"id":39}